:100000000C942A000C942A250C9447000C94470069
:100010000C9447000C9447000C9447000C94470044
:100020000C9447000C9447000C9447000C94470034
:100030000C9447000C9447000C9447000C94470024
:100040000C9447000C9447000C9447000C94470014
:100050000C94470011241FBECFE5D8E0DEBFCDBF12
:1000600010E0A0E6B0E0EEEBFCE602C005900D92D9
:10007000A23DB107D9F710E0A2EDB0E001C01D929A
:10008000A33DB107E1F70E94F61C0C945D360C9479
:100090000000EF92FF920F931F937B018C0120E0F1
:1000A00030E040E05FE40E94F50388238CF0C80153
:1000B000B70120E030E040E05FE40E94C1010E940F
:1000C00055049B01AC01205030404040504806C0D0
:1000D000C801B7010E9455049B01AC01B901CA01D6
:1000E0001F910F91FF90EF900895A0E0B0E0EBE733
:1000F000F0E00C942636DC012B01FA019C91923041
:1001000008F439C1EB018881823008F433C194309E
:1001100069F4843009F02FC111969C91119789815F
:10012000981709F428C1A2E9B0E025C1843009F488
:1001300021C18230A9F4923009F01DC19A01AD01AC
:1001400088E0EA010990AE01E90109929E0181501F
:10015000C1F7E201898111969C918923818308C1AD
:10016000923009F407C112962D903C901397EB0141
:100170008A819B811496AD90BD90CD90DC901797AD
:10018000EC80FD800E811F819101281B390BB90184
:1001900037FF04C066277727621B730B6032710537
:1001A0000CF061C0121613066CF537014801062EDB
:1001B00004C096948794779467940A94D2F721E0C8
:1001C00030E040E050E004C0220F331F441F551FB1
:1001D0006A95D2F721503040404050402E213F21B7
:1001E00040235123211531054105510521F021E01E
:1001F00030E040E050E079018A01E628F72808293C
:1002000019293CC0232BD1F1260E371E350146019A
:10021000062E04C096948794779467940A94D2F734
:1002200021E030E040E050E004C0220F331F441FC3
:10023000551F6A95D2F721503040404050402A2146
:100240003B214C215D21211531054105510521F04E
:1002500021E030E040E050E059016A01A628B728CB
:10026000C828D9280BC0821593052CF01C01AA249C
:10027000BB24650103C0EE24FF24870111969C91E5
:10028000D20111968C91981709F445C0992339F041
:10029000A80197012A193B094C095D0906C0A6016E
:1002A00095012E193F09400B510B57FD08C01182D3
:1002B0003382228224833583468357831DC081E0A5
:1002C00081833382228288279927DC01821B930B4A
:1002D000A40BB50B84839583A683B7830DC0220F2F
:1002E000331F441F551F24833583468357838281E0
:1002F000938101979383828324813581468157813D
:10030000DA01C9010197A109B1098F5F9F4FAF4F72
:10031000BF4328F30BC0918333822282EA0CFB1C7B
:100320000C1D1D1DE482F5820683178383E0808304
:10033000248135814681578157FF1AC0C901AA27F8
:1003400097FDA095BA2F81709070A070B0705695EF
:10035000479537952795822B932BA42BB52B848318
:100360009583A683B7838281938101969383828349
:10037000DF0101C0D201CD01CDB7DEB7E2E10C94BF
:100380004236A0E2B0E0E7ECF1E00C94323669834B
:100390007A838B839C832D833E834F835887E9E048
:1003A000EE2EF12CEC0EFD1ECE010196B7010E943F
:1003B0007E058E010F5E1F4FCE010596B8010E948B
:1003C0007E058A8991E089278A8BC701B801AE0131
:1003D000475E5F4F0E9475000E94A904A096E6E068
:1003E0000C944E36A0E2B0E0E8EFF1E00C94323627
:1003F00069837A838B839C832D833E834F835887C5
:10040000F9E0EF2EF12CEC0EFD1ECE010196B701A6
:100410000E947E058E010F5E1F4FCE010596B8012A
:100420000E947E05C701B801AE01475E5F4F0E9482
:1004300075000E94A904A096E6E00C944E36A0E256
:10044000B0E0E5E2F2E00C94263669837A838B8390
:100450009C832D833E834F835887CE010196BE0136
:10046000675F7F4F0E947E05CE010596BE016F5EDD
:100470007F4F0E947E059985923088F0898982306D
:10048000C8F0943019F4823051F404C0843029F457
:10049000923081F482E990E0C6C0923049F420E0C5
:1004A0009A858A89981321E02A87CE010996BBC0D4
:1004B000823049F420E09A858A89981321E02A8BBA
:1004C000CE014196B0C02D843E844F8458886D88FB
:1004D0007E888F88988CEE24FF248701AA24BB2471
:1004E000650140E050E060E070E0E0E0F0E0C10174
:1004F00081709070892BE9F0E60CF71C081D191D1E
:100500009A01AB012A0D3B1D4C1D5D1D80E090E062
:10051000A0E0B0E0E614F7040805190520F481E036
:1005200090E0A0E0B0E0BA01A901480F591F6A1F8E
:100530007B1FAA0CBB1CCC1CDD1C97FE08C081E0F5
:1005400090E0A0E0B0E0A82AB92ACA2ADB2A3196B6
:10055000E032F10549F0660C771C881C991C569412
:10056000479437942794C3CFFA85EA892B893C892D
:100570008B859C85280F391F2E5F3F4F17C0CA01FE
:1005800081709070892B61F016950795F794E79428
:1005900080E090E0A0E0B0E8E82AF92A0A2B1B2BC3
:1005A00076956795579547952F5F3F4F77FDE7CF36
:1005B0000CC0440F551F661F771F17FD4160EE0CDE
:1005C000FF1C001F111F21503040403090E05907A0
:1005D00090E0690790E4790760F32B8F3C8FDB0193
:1005E000CA018F779070A070B07080349105A1051A
:1005F000B10561F447FD0AC0E114F10401051105DC
:1006000029F0405C5F4F6F4F7F4F40781A8EFE1786
:1006100011F081E08A8F4D8F5E8F6F8F78A383E01A
:10062000898FCE0149960E94A904A096E2E10C941C
:100630004236A8E1B0E0EFE1F3E00C942E36698396
:100640007A838B839C832D833E834F835887B9E0C5
:10065000EB2EF12CEC0EFD1ECE010196B7010E948F
:100660007E058E010F5E1F4FCE010596B8010E94D8
:100670007E052985223008F47EC03989323010F495
:10068000B8017CC08A859A8989278A87243011F02D
:10069000223031F4231709F06EC062E970E06EC0B9
:1006A000343039F41D861E861F86188A1C861B86E8
:1006B00004C0323021F484E08987B7015FC02B8504
:1006C0003C858B899C89281B390B3C872B87ED84C3
:1006D000FE840F851889AD88BE88CF88D88CEA142F
:1006E000FB040C051D0540F4EE0CFF1C001F111F40
:1006F000215030403C872B8720E030E040E050E044
:1007000080E090E0A0E0B0E460E070E0EA14FB0478
:100710000C051D0540F0282B392B4A2B5B2BEA18C2
:10072000FB080C091D09B695A79597958795EE0CC2
:10073000FF1C001F111F6F5F7F4F6F31710531F775
:10074000DA01C9018F779070A070B0708034910584
:10075000A105B10561F427FD0AC0E114F10401050A
:10076000110529F0205C3F4F4F4F5F4F20782D87B8
:100770003E874F87588BBE01675F7F4FCB010E943A
:10078000A9046896EAE00C944A36A8E1B0E0EBECE4
:10079000F3E00C94323669837A838B839C832D83B8
:1007A0003E834F83588789E0E82EF12CEC0EFD1E26
:1007B000CE010196B7010E947E058E010F5E1F4F8C
:1007C000CE010596B8010E947E058985823040F0F1
:1007D0008989823028F0C701B8010E94F60501C05E
:1007E0008FEF6896E6E00C944E36A8E1B0E0EBEFB0
:1007F000F3E00C94323669837A838B839C832D8358
:100800003E834F83588789E0E82EF12CEC0EFD1EC5
:10081000CE010196B7010E947E058E010F5E1F4F2B
:10082000CE010596B8010E947E058985823040F090
:100830008989823028F0C701B8010E94F60501C0FD
:100840008FEF6896E6E00C944E36A8E1B0E0EBE25C
:10085000F4E00C94323669837A838B839C832D83F6
:100860003E834F83588789E0E82EF12CEC0EFD1E65
:10087000CE010196B7010E947E058E010F5E1F4FCB
:10088000CE010596B8010E947E058985823040F030
:100890008989823028F0C701B8010E94F60501C09D
:1008A00081E06896E6E00C944E36ACE0B0E0EBE513
:1008B000F4E00C94363669837A838B839C83CE0173
:1008C0000196BE016B5F7F4F0E947E058D81823055
:1008D00061F1823050F1843021F48E81882351F10E
:1008E0002EC02F81388537FD20C06E812F31310514
:1008F0001CF06623F9F023C08EE190E0821B930B7D
:1009000029853A854B855C8504C056954795379572
:1009100027958A95D2F76623B1F05095409530958A
:1009200021953F4F4F4F5F4F0EC020E030E040E039
:1009300050E009C02FEF3FEF4FEF5FE704C020E02A
:1009400030E040E050E8B901CA012C96E2E00C9496
:100950005236DF92EF92FF920F931F93FC01E480D7
:10096000F58006811781D1808081823048F480E053
:1009700090E0A0E1B0E0E82AF92A0A2B1B2BA5C0E1
:10098000843009F49FC0823021F4EE24FF248701D3
:1009900005C0E114F1040105110519F4E0E0F0E0EF
:1009A00096C0628173819FEF623879070CF05BC05B
:1009B00022E83FEF261B370B2A3131052CF020E0CF
:1009C00030E040E050E02AC0B801A701022E04C088
:1009D00076956795579547950A94D2F781E090E010
:1009E000A0E0B0E004C0880F991FAA1FBB1F2A9582
:1009F000D2F70197A109B1098E219F21A023B1232C
:100A00000097A105B10521F081E090E0A0E0B0E001
:100A10009A01AB01282B392B4A2B5B2BDA01C90138
:100A20008F779070A070B07080349105A105B105EA
:100A300039F427FF09C0205C3F4F4F4F5F4F04C080
:100A4000215C3F4F4F4F5F4FE0E0F0E02030A0E0EF
:100A50003A07A0E04A07A0E45A0710F0E1E0F0E00E
:100A600079018A0127C06038710564F5FB01E158FE
:100A7000FF4FD801C7018F779070A070B07080349D
:100A80009105A105B10539F4E7FE0DC080E490E0C1
:100A9000A0E0B0E004C08FE390E0A0E0B0E0E80E9A
:100AA000F91E0A1F1B1F17FF05C016950795F7941F
:100AB000E794319687E016950795F794E7948A9521
:100AC000D1F705C0EE24FF248701EFEFF0E06E2F91
:100AD000679566276795902F9F77D794DD24D794E5
:100AE0008E2F8695492F462B582F5D29B701CA01B5
:100AF0001F910F91FF90EF90DF900895FC01DB01B3
:100B0000408151812281622F6F7770E0221F22275E
:100B1000221F9381892F880F822B282F30E0991F65
:100B20009927991F11969C93119721153105A9F5C5
:100B3000411551056105710511F482E037C082E865
:100B40009FEF13969C938E9312979A01AB0167E0E7
:100B5000220F331F441F551F6A95D1F783E08C93F2
:100B60000DC0220F331F441F551F12968D919C916B
:100B70001397019713969C938E931297203080E0E1
:100B8000380780E0480780E4580758F314962D93FF
:100B90003D934D935C93179708952F3F310579F45A
:100BA000411551056105710519F484E08C93089590
:100BB00064FF03C081E08C9312C01C9210C02F57B9
:100BC000304013963C932E93129783E08C9387E0EA
:100BD000440F551F661F771F8A95D1F770641496CE
:100BE0004D935D936D937C93179708951F93DC014C
:100BF000FB019C91923008F447C08081823008F458
:100C000043C0943051F411961C91843099F5818140
:100C1000682F70E0611B71093FC0843021F0923071
:100C200031F48230B9F18181882389F12DC0119688
:100C30001C9111978230F1F081811817D9F4129626
:100C40002D913C911397828193818217930794F0A1
:100C500028173907BCF014968D919D910D90BC9189
:100C6000A02D2481358146815781281739074A07ED
:100C70005B0718F4112341F00AC082179307A407F9
:100C8000B50740F4112319F061E070E005C06FEF83
:100C90007FEF02C060E070E0CB011F910895DF9309
:100CA000CF93CDB7DEB727970FB6F894DEBF0FBE50
:100CB000CDBF89836A834B838B81882309F074C0FD
:100CC0008981282F30E03F832E838E819F81813060
:100CD000910559F12E813F81223031052CF48E810E
:100CE0009F81009769F0D2C02E813F81223031056B
:100CF00089F18E819F818330910509F440C0C6C07F
:100D0000AAE3B0E0EAE3F0E08081482F8A81282F4F
:100D100030E081E090E0022E02C0880F991F0A9413
:100D2000E2F7809584238C93B1C0A7E3B0E0E7E3BA
:100D3000F0E08081482F8A81282F30E081E090E028
:100D4000022E02C0880F991F0A94E2F7809584232F
:100D50008C939CC0A4E3B0E0E4E3F0E08081482FF2
:100D60008A81282F30E081E090E0022E02C0880FB7
:100D7000991F0A94E2F7809584238C9387C0A1E39E
:100D8000B0E0E1E3F0E08081482F8A81282F30E055
:100D900081E090E0022E02C0880F991F0A94E2F7CA
:100DA000809584238C9372C08B81813009F06EC052
:100DB0008981282F30E03D832C838C819D81813077
:100DC000910549F12C813D81223031052CF48C8133
:100DD0009D81009761F05AC02C813D812230310500
:100DE00071F18C819D8183309105E9F14FC0AAE3B7
:100DF000B0E0EAE3F0E08081482F8A81282F30E0DC
:100E000081E090E0022E02C0880F991F0A94E2F759
:100E1000842B8C933BC0A7E3B0E0E7E3F0E0808154
:100E2000482F8A81282F30E081E090E0022E02C016
:100E3000880F991F0A94E2F7842B8C9327C0A4E3B0
:100E4000B0E0E4E3F0E08081482F8A81282F30E091
:100E500081E090E0022E02C0880F991F0A94E2F709
:100E6000842B8C9313C0A1E3B0E0E1E3F0E0808138
:100E7000482F8A81282F30E081E090E0022E02C0C6
:100E8000880F991F0A94E2F7842B8C9327960FB64C
:100E9000F894DEBF0FBECDBFCF91DF910895DF93F1
:100EA000CF93CDB7DEB727970FB6F894DEBF0FBE4E
:100EB000CDBF89836A834B838B81882309F074C0FB
:100EC0008981282F30E03F832E838E819F8181305E
:100ED000910559F12E813F81223031052CF48E810C
:100EE0009F81009769F0D2C02E813F812230310569
:100EF00089F18E819F818330910509F440C0C6C07D
:100F0000ABE3B0E0EBE3F0E08081482F8A81282F4B
:100F100030E081E090E0022E02C0880F991F0A9411
:100F2000E2F7809584238C93B1C0A8E3B0E0E8E3B6
:100F3000F0E08081482F8A81282F30E081E090E026
:100F4000022E02C0880F991F0A94E2F7809584232D
:100F50008C939CC0A5E3B0E0E5E3F0E08081482FEE
:100F60008A81282F30E081E090E0022E02C0880FB5
:100F7000991F0A94E2F7809584238C9387C0A2E39B
:100F8000B0E0E2E3F0E08081482F8A81282F30E052
:100F900081E090E0022E02C0880F991F0A94E2F7C8
:100FA000809584238C9372C08B81813009F06EC050
:100FB0008981282F30E03D832C838C819D81813075
:100FC000910549F12C813D81223031052CF48C8131
:100FD0009D81009761F05AC02C813D8122303105FE
:100FE00071F18C819D8183309105E9F14FC0ABE3B4
:100FF000B0E0EBE3F0E08081482F8A81282F30E0D9
:1010000081E090E0022E02C0880F991F0A94E2F757
:10101000842B8C933BC0A8E3B0E0E8E3F0E0808150
:10102000482F8A81282F30E081E090E0022E02C014
:10103000880F991F0A94E2F7842B8C9327C0A5E3AD
:10104000B0E0E5E3F0E08081482F8A81282F30E08E
:1010500081E090E0022E02C0880F991F0A94E2F707
:10106000842B8C9313C0A2E3B0E0E2E3F0E0808134
:10107000482F8A81282F30E081E090E0022E02C0C4
:10108000880F991F0A94E2F7842B8C9327960FB64A
:10109000F894DEBF0FBECDBFCF91DF910895DF93EF
:1010A000CF9300D000D00F92CDB7DEB78A836B8389
:1010B0008FEF89838A81282F30E03D832C834C81F8
:1010C0005D814130510541F18C819D8182309105D6
:1010D00034F42C813D812115310561F052C04C81E1
:1010E0005D814230510551F18C819D8183309105A4
:1010F000B9F147C0E9E3F0E08081282F30E08B812F
:10110000882F90E0A90102C0559547958A95E2F78E
:10111000CA018170898335C0E6E3F0E08081282F21
:1011200030E08B81882F90E0A90102C0559547954A
:101130008A95E2F7CA018170898323C0E3E3F0E076
:101140008081282F30E08B81882F90E0A90102C098
:10115000559547958A95E2F7CA018170898311C038
:10116000E0E3F0E08081282F30E08B81882F90E051
:10117000A90102C0559547958A95E2F7CA01817089
:10118000898389810F900F900F900F900F90CF91CE
:10119000DF910895DF93CF9300D000D0CDB7DEB7B5
:1011A00089836A838981282F30E03C832B838B815C
:1011B0009C8181309105D1F02B813C812230310519
:1011C0002CF48B819C81009761F01EC02B813C81A7
:1011D0002230310581F08B819C818330910581F033
:1011E00013C0EAE3F0E08A8180830EC0E7E3F0E019
:1011F0008A81808309C0E4E3F0E08A81808304C0AF
:10120000E1E3F0E08A8180830F900F900F900F90C0
:10121000CF91DF910895DF93CF9300D000D0CDB769
:10122000DEB789836A838981282F30E03C832B8352
:101230008B819C8181309105D1F02B813C812230C2
:1012400031052CF48B819C81009761F01EC02B81AD
:101250003C812230310581F08B819C818330910566
:1012600081F013C0EBE3F0E08A8180830EC0E8E3F5
:10127000F0E08A81808309C0E5E3F0E08A81808321
:1012800004C0E2E3F0E08A8180830F900F900F901A
:101290000F90CF91DF910895DF93CF9300D000D0CE
:1012A000CDB7DEB789836A838981282F30E03C83FC
:1012B0002B838B819C818130910549F12B813C816D
:1012C000223031052CF48B819C81009761F05AC04B
:1012D0002B813C812230310571F18B819C818330DF
:1012E0009105E9F14FC0ABE3B0E0EBE3F0E08081C2
:1012F000482F8A81282F30E081E090E0022E02C042
:10130000880F991F0A94E2F784278C933BC0A8E3C7
:10131000B0E0E8E3F0E08081482F8A81282F30E0B8
:1013200081E090E0022E02C0880F991F0A94E2F734
:1013300084278C9327C0A5E3B0E0E5E3F0E080814B
:10134000482F8A81282F30E081E090E0022E02C0F1
:10135000880F991F0A94E2F784278C9313C0A2E3A5
:10136000B0E0E2E3F0E08081482F8A81282F30E06E
:1013700081E090E0022E02C0880F991F0A94E2F7E4
:1013800084278C930F900F900F900F90CF91DF9147
:101390000895DF93CF9300D000D0CDB7DEB7898317
:1013A0006A838981282F30E03C832B838B819C8149
:1013B00081309105D1F02B813C81223031052CF414
:1013C0008B819C81009761F01EC02B813C81223073
:1013D000310581F08B819C818330910581F013C0B0
:1013E000EAE3F0E08A8180830EC0E7E3F0E08A81DF
:1013F000808309C0E4E3F0E08A81808304C0E1E3F4
:10140000F0E08A8180830F900F900F900F90CF9122
:10141000DF910895DF93CF9300D000D0CDB7DEB732
:1014200089836A838981282F30E03C832B838B81D9
:101430009C8181309105D1F02B813C812230310596
:101440002CF48B819C81009761F01EC02B813C8124
:101450002230310581F08B819C818330910581F0B0
:1014600013C0EBE3F0E08A8180830EC0E8E3F0E094
:101470008A81808309C0E5E3F0E08A81808304C02B
:10148000E2E3F0E08A8180830F900F900F900F903D
:10149000CF91DF910895DF93CF93CDB7DEB7279734
:1014A0000FB6F894DEBF0FBECDBF89836A834B832E
:1014B0008B81813009F06FC08981282F30E03F8314
:1014C0002E838E819F818130910549F12E813F814C
:1014D000223031052CF48E819F81009761F0D2C0BB
:1014E0002E813F812230310571F18E819F818330C1
:1014F0009105E9F1C7C0AAE3B0E0EAE3F0E080813A
:10150000482F8A81282F30E081E090E0022E02C02F
:10151000880F991F0A94E2F7842B8C93B3C0A7E33A
:10152000B0E0E7E3F0E08081482F8A81282F30E0A7
:1015300081E090E0022E02C0880F991F0A94E2F722
:10154000842B8C939FC0A4E3B0E0E4E3F0E08081BF
:10155000482F8A81282F30E081E090E0022E02C0DF
:10156000880F991F0A94E2F7842B8C938BC0A1E318
:10157000B0E0E1E3F0E08081482F8A81282F30E05D
:1015800081E090E0022E02C0880F991F0A94E2F7D2
:10159000842B8C9377C08B81882309F073C0898159
:1015A000282F30E03D832C838C819D8181309105F3
:1015B00059F12C813D81223031052CF48C819D81A3
:1015C000009769F05FC02C813D812230310589F19F
:1015D0008C819D818330910509F440C053C0AAE3FA
:1015E000B0E0EAE3F0E08081482F8A81282F30E0E4
:1015F00081E090E0022E02C0880F991F0A94E2F762
:10160000809584238C933EC0A7E3B0E0E7E3F0E04D
:101610008081482F8A81282F30E081E090E0022EDF
:1016200002C0880F991F0A94E2F7809584238C9357
:1016300029C0A4E3B0E0E4E3F0E08081482F8A8190
:10164000282F30E081E090E0022E02C0880F991F21
:101650000A94E2F7809584238C9314C0A1E3B0E050
:10166000E1E3F0E08081482F8A81282F30E081E09B
:1016700090E0022E02C0880F991F0A94E2F780952D
:1016800084238C9327960FB6F894DEBF0FBECDBF90
:10169000CF91DF910895DF93CF93CDB7DEB7279732
:1016A0000FB6F894DEBF0FBECDBF89836A834B832C
:1016B0008B81813009F06FC08981282F30E03F8312
:1016C0002E838E819F818130910549F12E813F814A
:1016D000223031052CF48E819F81009761F0D2C0B9
:1016E0002E813F812230310571F18E819F818330BF
:1016F0009105E9F1C7C0ABE3B0E0EBE3F0E0808136
:10170000482F8A81282F30E081E090E0022E02C02D
:10171000880F991F0A94E2F7842B8C93B3C0A8E337
:10172000B0E0E8E3F0E08081482F8A81282F30E0A4
:1017300081E090E0022E02C0880F991F0A94E2F720
:10174000842B8C939FC0A5E3B0E0E5E3F0E08081BB
:10175000482F8A81282F30E081E090E0022E02C0DD
:10176000880F991F0A94E2F7842B8C938BC0A2E315
:10177000B0E0E2E3F0E08081482F8A81282F30E05A
:1017800081E090E0022E02C0880F991F0A94E2F7D0
:10179000842B8C9377C08B81882309F073C0898157
:1017A000282F30E03D832C838C819D8181309105F1
:1017B00059F12C813D81223031052CF48C819D81A1
:1017C000009769F05FC02C813D812230310589F19D
:1017D0008C819D818330910509F440C053C0ABE3F7
:1017E000B0E0EBE3F0E08081482F8A81282F30E0E1
:1017F00081E090E0022E02C0880F991F0A94E2F760
:10180000809584238C933EC0A8E3B0E0E8E3F0E049
:101810008081482F8A81282F30E081E090E0022EDD
:1018200002C0880F991F0A94E2F7809584238C9355
:1018300029C0A5E3B0E0E5E3F0E08081482F8A818C
:10184000282F30E081E090E0022E02C0880F991F1F
:101850000A94E2F7809584238C9314C0A2E3B0E04D
:10186000E2E3F0E08081482F8A81282F30E081E098
:1018700090E0022E02C0880F991F0A94E2F780952B
:1018800084238C9327960FB6F894DEBF0FBECDBF8E
:10189000CF91DF910895DF93CF9300D000D0CDB7E3
:1018A000DEB78A8319828A81282F30E03C832B831C
:1018B0008B819C8181309105D1F02B813C8122303C
:1018C00031052CF48B819C81009761F01EC02B8127
:1018D0003C812230310581F08B819C8183309105E0
:1018E00081F013C0E9E3F0E0808189830EC0E6E374
:1018F000F0E08081898309C0E3E3F0E0808189839F
:1019000004C0E0E3F0E08081898389810F900F902B
:101910000F900F90CF91DF910895DF93CF9300D078
:1019200000D00F92CDB7DEB78A836B8319828A818C
:10193000282F30E03D832C834C815D81413051055F
:1019400041F18C819D818230910534F42C813D815F
:101950002115310561F052C04C815D814230510545
:1019600051F18C819D8183309105B9F147C0E9E344
:10197000F0E08081282F30E08B81882F90E0A90152
:1019800002C0559547958A95E2F7CA01817089830F
:1019900035C0E6E3F0E08081282F30E08B81882F8E
:1019A00090E0A90102C0559547958A95E2F7CA01D2
:1019B0008170898323C0E3E3F0E08081282F30E049
:1019C0008B81882F90E0A90102C0559547958A9593
:1019D000E2F7CA018170898311C0E0E3F0E0808101
:1019E000282F30E08B81882F90E0A90102C0559507
:1019F00047958A95E2F7CA018170898389810F90A2
:101A00000F900F900F900F90CF91DF910895DF937B
:101A1000CF930F92CDB7DEB7898380919A009091D2
:101A20009B00692F40E00E944B0A80919A009091A0
:101A30009B00692F41E00E944B0B89810E945D0E43
:101A4000AAE5B0E0EAE5F0E0808180628C93ABE546
:101A5000B0E0EBE5F0E0808180628C93AFE5B0E030
:101A6000EFE5F0E0808180688C930F90CF91DF915B
:101A70000895DF93CF930F92CDB7DEB7898380911E
:101A80009C0090919D00692F40E00E944B0A80913C
:101A90009C0090919D00692F41E00E944B0B898131
:101AA0000E94FD0DAAE5B0E0EAE5F0E080818068E3
:101AB0008C93ABE5B0E0EBE5F0E0808180688C933F
:101AC000AFE5B0E0EFE5F0E0808180688C930F90A7
:101AD000CF91DF910895DF93CF930F92CDB7DEB70B
:101AE000898380919E0090919F00692F40E00E9421
:101AF0004B0A80919E0090919F00692F41E00E94C7
:101B00004B0B89810E949D0DAAE5B0E0EAE5F0E06B
:101B1000808180648C93ABE5B0E0EBE5F0E0808100
:101B200080648C93AFE5B0E0EFE5F0E08081806801
:101B30008C930F90CF91DF910895DF93CF9300D0D6
:101B40000F92CDB7DEB789838981282F30E03B83A0
:101B50002A838A819B818130910521F12A813B81F1
:101B6000223031052CF48A819B81009761F03FC0BF
:101B70002A813B812230310521F18A819B8183308A
:101B8000910539F134C0A5E5B0E0E5E5F0E08081EC
:101B90008E7F8C93A5E5B0E0E5E5F0E08081826082
:101BA0008C9325C0A5E5B0E0E5E5F0E0808181609B
:101BB0008C93A5E5B0E0E5E5F0E0808182608C9350
:101BC00016C0A5E5B0E0E5E5F0E0808181608C938A
:101BD0000EC0A5E5B0E0E5E5F0E080818E7F8C9356
:101BE000A5E5B0E0E5E5F0E080818D7F8C930F9076
:101BF0000F900F90CF91DF910895DF93CF9300D096
:101C00000F92CDB7DEB789838981282F30E03B83DF
:101C10002A838A819B818130910521F12A813B8130
:101C2000223031052CF48A819B81009761F03FC0FE
:101C30002A813B812230310521F18A819B818330C9
:101C4000910539F134C0A5E5B0E0E5E5F0E080812B
:101C50008E7F8C93A5E5B0E0E5E5F0E080818260C1
:101C60008C9325C0A5E5B0E0E5E5F0E080818160DA
:101C70008C93A5E5B0E0E5E5F0E0808182608C938F
:101C800016C0A5E5B0E0E5E5F0E0808181608C93C9
:101C90000EC0A5E5B0E0E5E5F0E080818E7F8C9395
:101CA000A5E5B0E0E5E5F0E080818D7F8C930F90B5
:101CB0000F900F90CF91DF910895DF93CF9300D0D5
:101CC0000F92CDB7DEB789838981282F30E03B831F
:101CD0002A838A819B81009731F02A813B812130C0
:101CE000310549F00FC0A4E5B0E0E4E5F0E0808103
:101CF0008F7B8C9307C0A4E5B0E0E4E5F0E0808141
:101D000080648C930F900F900F90CF91DF91089586
:101D10000F931F93DF93CF93CDB7DEB7C455D04059
:101D20000FB6F894DEBF0FBECDBF81E06FEF0E940B
:101D3000CA0883E064E041E00E944F0683E065E06A
:101D400041E00E944F06FE01EF5AFF4F80E090E015
:101D5000A0EFB1E480839183A283B3838E01035B00
:101D60001F4FFE01EF5AFF4F608171818281938185
:101D700020E030E04AEF54E40E941F02DC01CB0176
:101D8000F80180839183A283B383FE01E35BFF4F5D
:101D9000608171818281938120E030E040E85FE3DF
:101DA0000E942504882344F4FE01E55BFF4F81E097
:101DB00090E09183808364C0FE01E35BFF4F60810C
:101DC00071818281938120E03FEF4FE757E40E94C9
:101DD000C50318160CF043C0FE01EF5AFF4F608197
:101DE00071818281938120E030E040E251E40E94E1
:101DF0001F02DC01CB018E01055B1F4FBC01CD0131
:101E00000E944900DC01CB01F801918380831FC04F
:101E1000FE01E75BFF4F88EC90E091838083FE0139
:101E2000E75BFF4F808191810197F1F7FE01E75B4E
:101E3000FF4F91838083DE01A55BBF4FFE01E55B11
:101E4000FF4F80819181019711969C938E93FE01A3
:101E5000E55BFF4F808191810097D1F627C08E010D
:101E6000055B1F4FFE01E35BFF4F60817181828143
:101E700093810E944900DC01CB01F80191838083AA
:101E8000DE01A95BBF4FFE01E55BFF4F80819181C1
:101E90008D939C93FE01E95BFF4F808191810197B7
:101EA000F1F7FE01E95BFF4F9183808382E00E949E
:101EB000BE11FE01ED5BFF4F80E090E0A0E7B1E4D2
:101EC00080839183A283B3838E01015C1F4FFE0147
:101ED000ED5BFF4F608171818281938120E030E072
:101EE0004AEF54E40E941F02DC01CB01F801808319
:101EF0009183A283B383FE01FF9660817181828109
:101F0000938120E030E040E85FE30E9425048823CD
:101F10002CF481E090E09EAF8DAF46C0FE01FF96AD
:101F2000608171818281938120E03FEF4FE757E428
:101F30000E94C503181664F5FE01ED5BFF4F60813A
:101F400071818281938120E030E040E251E40E947F
:101F50001F02DC01CB01BC01CD010E944900DC0164
:101F6000CB019EAF8DAF0FC088EC90E09CAF8BAFE4
:101F70008BAD9CAD0197F1F79CAF8BAF8DAD9EAD56
:101F800001979EAF8DAF8DAD9EAD009769F716C0DE
:101F9000FE01FF9660817181828193810E944900D8
:101FA000DC01CB019EAF8DAF8DAD9EAD9AAF89AFF9
:101FB00089AD9AAD0197F1F79AAF89AF88E30E9496
:101FC000BE1180E090E0A0E8BFE38DAB9EABAFAB6D
:101FD000B8AF6DA97EA98FA998AD20E030E04AEF97
:101FE00054E40E941F02DC01CB0189AB9AABABAB7E
:101FF000BCAB69A97AA98BA99CA920E030E040E894
:102000005FE30E94250488232CF481E090E098ABE4
:102010008FA73FC069A97AA98BA99CA920E03FEFAF
:102020004FE757E40E94C50318164CF56DA97EA929
:102030008FA998AD20E030E040E251E40E941F02F9
:10204000DC01CB01BC01CD010E944900DC01CB01C8
:1020500098AB8FA70FC088EC90E09EA78DA78DA5A9
:102060009EA50197F1F79EA78DA78FA598A9019727
:1020700098AB8FA78FA598A9009769F714C069A995
:102080007AA98BA99CA90E944900DC01CB0198ABDD
:102090008FA78FA598A99CA78BA78BA59CA5019717
:1020A000F1F79CA78BA78CE00E94BE1180E090E026
:1020B000A0E8BFE38FA398A7A9A7BAA76FA178A5A7
:1020C00089A59AA520E030E04AEF54E40E941F025F
:1020D000DC01CB018BA39CA3ADA3BEA36BA17CA110
:1020E0008DA19EA120E030E040E85FE30E9425043E
:1020F00088232CF481E090E09AA389A33FC06BA1D0
:102100007CA18DA19EA120E03FEF4FE757E40E9404
:10211000C50318164CF56FA178A589A59AA520E0EE
:1021200030E040E251E40E941F02DC01CB01BC011F
:10213000CD010E944900DC01CB019AA389A30FC005
:1021400088EC90E098A38F8F8F8D98A10197F1F77D
:1021500098A38F8F89A19AA101979AA389A389A196
:102160009AA1009769F714C06BA17CA18DA19EA1D3
:102170000E944900DC01CB019AA389A389A19AA1FD
:102180009E8F8D8F8D8D9E8D0197F1F79E8F8D8FF8
:1021900081E00E94BE1180E090E0A0E0B0E4898F71
:1021A0009A8FAB8FBC8F698D7A8D8B8D9C8D20E043
:1021B00030E04AEF54E40E941F02DC01CB018D8B1A
:1021C0009E8BAF8BB88F6D897E898F89988D20E02B
:1021D00030E040E85FE30E94250488232CF481E08E
:1021E00090E09C8B8B8B3FC06D897E898F89988D09
:1021F00020E03FEF4FE757E40E94C50318164CF567
:10220000698D7A8D8B8D9C8D20E030E040E251E429
:102210000E941F02DC01CB01BC01CD010E944900DC
:10222000DC01CB019C8B8B8B0FC088EC90E09A8BF0
:10223000898B89899A890197F1F79A8B898B8B8988
:102240009C8901979C8B8B8B8B899C89009769F764
:1022500014C06D897E898F89988D0E944900DC01A8
:10226000CB019C8B8B8B8B899C89988B8F878F85DF
:1022700098890197F1F7988B8F8786E00E94BE11AD
:1022800080E090E0A0E7B1E48B879C87AD87BE87B4
:102290006B857C858D859E8520E030E04AEF54E497
:1022A0000E941F02DC01CB018F839887A987BA8720
:1022B0006F81788589859A8520E030E040E85FE38A
:1022C0000E94250488232CF481E090E09E838D8376
:1022D0003FC06F81788589859A8520E03FEF4FE781
:1022E00057E40E94C50318164CF56B857C858D85D7
:1022F0009E8520E030E040E251E40E941F02DC01B4
:10230000CB01BC01CD010E944900DC01CB019E83C1
:102310008D830FC088EC90E09C838B838B819C81A4
:102320000197F1F79C838B838D819E8101979E831A
:102330008D838D819E81009769F714C06F817885A8
:1023400089859A850E944900DC01CB019E838D839B
:102350008D819E819A83898389819A810197F1F782
:102360009A838983CC5ADF4F0FB6F894DEBF0FBE35
:10237000CDBFCF91DF911F910F9108950F931F93C0
:10238000DF93CF93CDB7DEB7CF56D0400FB6F894DA
:10239000DEBF0FBECDBFFE01E159FF4F808383E05A
:1023A00064E040E00E944F07FE01E559FF4F80E0E6
:1023B00090E0A0E8BFE380839183A283B3838E0182
:1023C00009591F4FFE01E559FF4F608171818281DC
:1023D00093812BEA3AEA4AE250E40E941F02DC01B0
:1023E000CB01F80180839183A283B383FE01E95975
:1023F000FF4F608171818281938120E030E040E86D
:102400005FE30E942504882334F4FE01EA59FF4F5C
:1024100081E08083E0C0FE01E959FF4F6081718156
:102420008281938120E030E04FE753E40E94C503AE
:1024300018160CF0C0C0FE01E559FF4F6081718194
:102440008281938120E030E04AE754E40E9419033E
:10245000DC01CB01FE01EE59FF4F80839183A28303
:10246000B3838E01025A1F4FFE01EE59FF4F608168
:1024700071818281938120E030E04AEF54E40E9430
:102480001F02DC01CB01F80180839183A283B38317
:10249000FE01E25AFF4F608171818281938120E0C9
:1024A00030E040E85FE30E942504882344F4FE0105
:1024B000E45AFF4F81E090E09183808364C0FE0185
:1024C000E25AFF4F608171818281938120E03FEF6A
:1024D0004FE757E40E94C50318160CF043C0FE01F5
:1024E000EE59FF4F608171818281938120E030E05D
:1024F00040E251E40E941F02DC01CB018E01045A2C
:102500001F4FBC01CD010E944900DC01CB01F80145
:10251000918380831FC0FE01E65AFF4F88EC90E054
:1025200091838083FE01E65AFF4F8081918101975C
:10253000F1F7FE01E65AFF4F91838083DE01A45A32
:10254000BF4FFE01E45AFF4F8081918101971196A0
:102550009C938E93FE01E45AFF4F808191810097F6
:10256000D1F64BC08E01045A1F4FFE01E25AFF4FB5
:1025700060817181828193810E944900DC01CB01DD
:10258000F80191838083DE01A85ABF4FFE01E45A0F
:10259000FF4F8081918111969C938E93FE01E85AA2
:1025A000FF4F808191810197F1F7FE01E85AFF4FBB
:1025B0009183808322C08E010A591F4FFE01E95981
:1025C000FF4F60817181828193810E944900DC010B
:1025D000CB01F8018083DE01A95ABF4FFE01EA5901
:1025E000FF4F80818C93FE01E95AFF4F80818A95CD
:1025F000F1F7FE01E95AFF4F808383E065E041E097
:102600000E944F07FE01ED5AFF4F80E090E0A0E8E6
:10261000BFE380839183A283B3838E01015B1F4F4D
:10262000FE01ED5AFF4F60817181828193812BEA17
:102630003AEA4AE250E40E941F02DC01CB01F801B1
:1026400080839183A283B383FE01E15BFF4F6081AE
:1026500071818281938120E030E040E85FE30E9455
:102660002504882334F4FE01E25BFF4F81E0808380
:10267000E0C0FE01E15BFF4F608171818281938147
:1026800020E030E04FE753E40E94C50318160CF039
:10269000C0C0FE01ED5AFF4F60817181828193813C
:1026A00020E030E04AE754E40E941903DC01CB014A
:1026B000FE01E65BFF4F80839183A283B3838E018B
:1026C0000A5B1F4FFE01E65BFF4F608171818281D3
:1026D000938120E030E04AEF54E40E941F02DC01C5
:1026E000CB01F80180839183A283B383FE01EA5B6F
:1026F000FF4F608171818281938120E030E040E86A
:102700005FE30E942504882344F4FE01EC5BFF4F45
:1027100081E090E09183808364C0FE01EA5BFF4F1B
:10272000608171818281938120E03FEF4FE757E420
:102730000E94C50318160CF043C0FE01E65BFF4F74
:10274000608171818281938120E030E040E251E438
:102750000E941F02DC01CB018E010C5B1F4FBC01EC
:10276000CD010E944900DC01CB01F80191838083F7
:102770001FC0FE01EE5BFF4F88EC90E091838083E9
:10278000FE01EE5BFF4F808191810197F1F7FE0121
:10279000EE5BFF4F91838083DE01AC5BBF4FFE0198
:1027A000EC5BFF4F80819181019711969C938E93F2
:1027B000FE01EC5BFF4F808191810097D1F642C012
:1027C0008E010C5B1F4FFE01EA5BFF4F6081718140
:1027D000828193810E944900DC01CB01F801918341
:1027E0008083DE01A05CBF4FFE01EC5BFF4F808168
:1027F000918111969C938E93FE01E05CFF4F808146
:1028000091810197F1F7FE01E05CFF4F9183808396
:1028100019C08E01025B1F4FFE01E15BFF4F60811B
:102820007181828193810E944900DC01CB01F80112
:102830008083FE01E25BFF4F80818FAF8FAD8A9571
:10284000F1F78FAFFE01E159FF4F81E060810E94F7
:102850000B0980E090E0A0E8BFE38BAF9CAFADAF89
:10286000BEAF6BAD7CAD8DAD9EAD2BEA3AEA4AE2D0
:1028700050E40E941F02DC01CB018FAB98AFA9AFDF
:10288000BAAF6FA978AD89AD9AAD20E030E040E8ED
:102890005FE30E94250488231CF481E08EAB91C085
:1028A0006FA978AD89AD9AAD20E030E04FE753E4F1
:1028B0000E94C50318160CF07BC06BAD7CAD8DADCE
:1028C0009EAD20E030E04AE754E40E941903DC01A9
:1028D000CB018AAB9BABACABBDAB6AA97BA98CA986
:1028E0009DA920E030E04AEF54E40E941F02DC0181
:1028F000CB018EA79FA7A8ABB9AB6EA57FA588A972
:1029000099A920E030E040E85FE30E942504882395
:102910002CF481E090E09DA78CA73FC06EA57FA519
:1029200088A999A920E03FEF4FE757E40E94C5032B
:1029300018164CF56AA97BA98CA99DA920E030E066
:1029400040E251E40E941F02DC01CB01BC01CD0139
:102950000E944900DC01CB019DA78CA70FC088EC29
:1029600090E09BA78AA78AA59BA50197F1F79BA753
:102970008AA78CA59DA501979DA78CA78CA59DA531
:10298000009769F724C06EA57FA588A999A90E9420
:102990004900DC01CB019DA78CA78CA59DA599A71B
:1029A00088A788A599A50197F1F799A788A70FC0CF
:1029B0006FA978AD89AD9AAD0E944900DC01CB01C9
:1029C0008EAB8EA98FA38FA18A95F1F78FA383E099
:1029D00065E040E00E944F0780E090E0A0EAB0E4AC
:1029E0008BA39CA3ADA3BEA36BA17CA18DA19EA133
:1029F0002BEA3AEA4AE250E40E941F02DC01CB01D2
:102A00008F8F98A3A9A3BAA36F8D78A189A19AA14A
:102A100020E030E040E85FE30E94250488231CF4B6
:102A200081E08E8F91C06F8D78A189A19AA120E05D
:102A300030E04FE753E40E94C50318160CF07BC04A
:102A40006BA17CA18DA19EA120E030E04AE754E477
:102A50000E941903DC01CB018A8F9B8FAC8FBD8F45
:102A60006A8D7B8D8C8D9D8D20E030E04AEF54E4A3
:102A70000E941F02DC01CB018E8B9F8BA88FB98F28
:102A80006E897F89888D998D20E030E040E85FE392
:102A90000E94250488232CF481E090E09D8B8C8B90
:102AA0003FC06E897F89888D998D20E03FEF4FE789
:102AB00057E40E94C50318164CF56A8D7B8D8C8DEA
:102AC0009D8D20E030E040E251E40E941F02DC01D5
:102AD000CB01BC01CD010E944900DC01CB019D8BE3
:102AE0008C8B0FC088EC90E09B8B8A8B8A899B89AA
:102AF0000197F1F79B8B8A8B8C899D8901979D8B20
:102B00008C8B8C899D89009769F724C06E897F8999
:102B1000888D998D0E944900DC01CB019D8B8C8BA7
:102B20008C899D89998B888B888999890197F1F780
:102B3000998B888B0FC06F8D78A189A19AA10E9473
:102B40004900DC01CB018E8F8E8D8F878F858A9512
:102B5000F1F78F8783E065E041E00E944F0780E056
:102B600090E0A0E2B1E48B879C87AD87BE876B8540
:102B70007C858D859E8520E030E04AEF54E40E94FC
:102B80001F02DC01CB018F839887A987BA876F81E9
:102B9000788589859A8520E030E040E85FE30E94EF
:102BA000250488232CF481E090E09E838D833FC030
:102BB0006F81788589859A8520E03FEF4FE757E45C
:102BC0000E94C50318164CF56B857C858D859E8506
:102BD00020E030E040E251E40E941F02DC01CB0122
:102BE000BC01CD010E944900DC01CB019E838D8395
:102BF0000FC088EC90E09C838B838B819C81019734
:102C0000F1F79C838B838D819E8101979E838D83B9
:102C10008D819E81009769F714C06F8178858985C1
:102C20009A850E944900DC01CB019E838D838D81B2
:102C30009E819A83898389819A810197F1F79A838A
:102C40008983C159DF4F0FB6F894DEBF0FBECDBFE9
:102C5000CF91DF911F910F9108950F931F93DF93F1
:102C6000CF93CDB7DEB7CF56D0400FB6F894DEBFC6
:102C70000FBECDBFFE01E159FF4F808383E064E0CA
:102C800041E00E944F07FE01E559FF4F80E090E0D0
:102C9000A0E8BFE380839183A283B3838E010959A7
:102CA0001F4FFE01E559FF4F608171818281938141
:102CB0002BEA3AEA4AE250E40E941F02DC01CB010F
:102CC000F80180839183A283B383FE01E959FF4F0A
:102CD000608171818281938120E030E040E85FE390
:102CE0000E942504882334F4FE01EA59FF4F81E055
:102CF0008083E0C0FE01E959FF4F608171818281CC
:102D0000938120E030E04FE753E40E94C50318169A
:102D10000CF0C0C0FE01E559FF4F608171818281D6
:102D2000938120E030E04AE754E40E941903DC017B
:102D3000CB01FE01EE59FF4F80839183A283B383C1
:102D40008E01025A1F4FFE01EE59FF4F60817181C3
:102D50008281938120E030E04AEF54E40E941F0218
:102D6000DC01CB01F80180839183A283B383FE0150
:102D7000E25AFF4F608171818281938120E030E0CF
:102D800040E85FE30E942504882344F4FE01E45AEE
:102D9000FF4F81E090E09183808364C0FE01E25A9E
:102DA000FF4F608171818281938120E03FEF4FE787
:102DB00057E40E94C50318160CF043C0FE01EE59FB
:102DC000FF4F608171818281938120E030E040E299
:102DD00051E40E941F02DC01CB018E01045A1F4FF7
:102DE000BC01CD010E944900DC01CB01F8019183B7
:102DF00080831FC0FE01E65AFF4F88EC90E091836C
:102E00008083FE01E65AFF4F808191810197F1F79F
:102E1000FE01E65AFF4F91838083DE01A45ABF4F23
:102E2000FE01E45AFF4F80819181019711969C9396
:102E30008E93FE01E45AFF4F808191810097D1F675
:102E40004BC08E01045A1F4FFE01E25AFF4F6081B2
:102E50007181828193810E944900DC01CB01F801DC
:102E600091838083DE01A85ABF4FFE01E45AFF4FD1
:102E70008081918111969C938E93FE01E85AFF4FB9
:102E8000808191810197F1F7FE01E85AFF4F91830C
:102E9000808322C08E010A591F4FFE01E959FF4F5E
:102EA00060817181828193810E944900DC01CB01A4
:102EB000F8018083DE01A95ABF4FFE01EA59FF4F96
:102EC00080818C93FE01E95AFF4F80818A95F1F74A
:102ED000FE01E95AFF4F808383E065E041E00E94F4
:102EE0004F07FE01ED5AFF4F80E090E0A0E8BFE3FE
:102EF00080839183A283B3838E01015B1F4FFE0108
:102F0000ED5AFF4F60817181828193812BEA3AEA09
:102F10004AE250E40E941F02DC01CB01F8018083E9
:102F20009183A283B383FE01E15BFF4F60817181D6
:102F30008281938120E030E040E85FE30E94250435
:102F4000882334F4FE01E25BFF4F81E08083E0C020
:102F5000FE01E15BFF4F608171818281938120E0FE
:102F600030E04FE753E40E94C50318160CF0C0C0D0
:102F7000FE01ED5AFF4F608171818281938120E0D3
:102F800030E04AE754E40E941903DC01CB01FE0162
:102F9000E65BFF4F80839183A283B3838E010A5B3C
:102FA0001F4FFE01E65BFF4F60817181828193813B
:102FB00020E030E04AEF54E40E941F02DC01CB0124
:102FC000F80180839183A283B383FE01EA5BFF4F04
:102FD000608171818281938120E030E040E85FE38D
:102FE0000E942504882344F4FE01EC5BFF4F81E03E
:102FF00090E09183808364C0FE01EA5BFF4F6081B3
:1030000071818281938120E03FEF4FE757E40E9476
:10301000C50318160CF043C0FE01E65BFF4F60814C
:1030200071818281938120E030E040E251E40E948E
:103030001F02DC01CB018E010C5B1F4FBC01CD01D7
:103040000E944900DC01CB01F801918380831FC0FD
:10305000FE01EE5BFF4F88EC90E091838083FE01E0
:10306000EE5BFF4F808191810197F1F7FE01EE5BEE
:10307000FF4F91838083DE01AC5BBF4FFE01EC5BB1
:10308000FF4F80819181019711969C938E93FE0151
:10309000EC5BFF4F808191810097D1F642C08E0199
:1030A0000C5B1F4FFE01EA5BFF4F608171818281E3
:1030B00093810E944900DC01CB01F8019183808358
:1030C000DE01A05CBF4FFE01EC5BFF4F8081918170
:1030D00011969C938E93FE01E05CFF4F808191815D
:1030E0000197F1F7FE01E05CFF4F9183808319C0E7
:1030F0008E01025B1F4FFE01E15BFF4F608171811A
:10310000828193810E944900DC01CB01F801808318
:10311000FE01E25BFF4F80818FAF8FAD8A95F1F7A3
:103120008FAFFE01E159FF4F81E060810E940B09E2
:1031300080E090E0A0E8BFE38BAF9CAFADAFBEAF47
:103140006BAD7CAD8DAD9EAD2BEA3AEA4AE250E420
:103150000E941F02DC01CB018FAB98AFA9AFBAAFC1
:103160006FA978AD89AD9AAD20E030E040E85FE32B
:103170000E94250488231CF481E08EAB91C06FA9C6
:1031800078AD89AD9AAD20E030E04FE753E40E947E
:10319000C50318160CF07BC06BAD7CAD8DAD9EAD3C
:1031A00020E030E04AE754E40E941903DC01CB013F
:1031B0008AAB9BABACABBDAB6AA97BA98CA99DA923
:1031C00020E030E04AEF54E40E941F02DC01CB0112
:1031D0008EA79FA7A8ABB9AB6EA57FA588A999A913
:1031E00020E030E040E85FE30E94250488232CF4CF
:1031F00081E090E09DA78CA73FC06EA57FA588A920
:1032000099A920E03FEF4FE757E40E94C503181645
:103210004CF56AA97BA98CA99DA920E030E040E289
:1032200051E40E941F02DC01CB01BC01CD010E94D0
:103230004900DC01CB019DA78CA70FC088EC90E072
:103240009BA78AA78AA59BA50197F1F79BA78AA7A9
:103250008CA59DA501979DA78CA78CA59DA50097E2
:1032600069F724C06EA57FA588A999A90E94490085
:10327000DC01CB019DA78CA78CA59DA599A788A74C
:1032800088A599A50197F1F799A788A70FC06FA9FD
:1032900078AD89AD9AAD0E944900DC01CB018EABBF
:1032A0008EA98FA38FA18A95F1F78FA383E065E0A4
:1032B00040E00E944F0780E090E0A0EAB0E48BA3DA
:1032C0009CA3ADA3BEA36BA17CA18DA19EA12BEA63
:1032D0003AEA4AE250E40E941F02DC01CB018F8FE0
:1032E00098A3A9A3BAA36F8D78A189A19AA120E080
:1032F00030E040E85FE30E94250488231CF481E06D
:103300008E8F91C06F8D78A189A19AA120E030E0C5
:103310004FE753E40E94C50318160CF07BC06BA165
:103320007CA18DA19EA120E030E04AE754E40E94F8
:103330001903DC01CB018A8F9B8FAC8FBD8F6A8D07
:103340007B8D8C8D9D8D20E030E04AEF54E40E940F
:103350001F02DC01CB018E8B9F8BA88FB98F6E89EA
:103360007F89888D998D20E030E040E85FE30E94FE
:10337000250488232CF481E090E09D8B8C8B3FC04A
:103380006E897F89888D998D20E03FEF4FE757E464
:103390000E94C50318164CF56A8D7B8D8C8D9D8D12
:1033A00020E030E040E251E40E941F02DC01CB014A
:1033B000BC01CD010E944900DC01CB019D8B8C8BAF
:1033C0000FC088EC90E09B8B8A8B8A899B89019740
:1033D000F1F79B8B8A8B8C899D8901979D8B8C8BB8
:1033E0008C899D89009769F724C06E897F89888DB3
:1033F000998D0E944900DC01CB019D8B8C8B8C89BF
:103400009D89998B888B888999890197F1F7998B88
:10341000888B0FC06F8D78A189A19AA10E94490065
:10342000DC01CB018E8F8E8D8F878F858A95F1F78A
:103430008F8783E065E041E00E944F0780E090E0E5
:10344000A0E2B1E48B879C87AD87BE876B857C85C6
:103450008D859E8520E030E04AEF54E40E941F02F3
:10346000DC01CB018F839887A987BA876F81788524
:1034700089859A8520E030E040E85FE30E942504DA
:1034800088232CF481E090E09E838D833FC06F8180
:10349000788589859A8520E03FEF4FE757E40E94C1
:1034A000C50318164CF56B857C858D859E8520E0BF
:1034B00030E040E251E40E941F02DC01CB01BC017C
:1034C000CD010E944900DC01CB019E838D830FC09A
:1034D00088EC90E09C838B838B819C810197F1F732
:1034E0009C838B838D819E8101979E838D838D81AB
:1034F0009E81009769F714C06F81788589859A85C8
:103500000E944900DC01CB019E838D838D819E81C9
:103510009A83898389819A810197F1F79A838983B4
:10352000C159DF4F0FB6F894DEBF0FBECDBFCF91AC
:10353000DF911F910F910895DF93CF9300D00F92E9
:10354000CDB7DEB79B838A8319820EC08981282F6D
:1035500030E08A819B81FC01E20FF31F80810E9491
:103560002D1689818F5F89838981282F30E08A8198
:103570009B81FC01E20FF31F8081882339F70F90B4
:103580000F900F90CF91DF910895DF93CF93CDB738
:10359000DEB781E00E94BE11CF91DF910895DF93E5
:1035A000CF9300D000D0CDB7DEB789836A838981FD
:1035B000282F30E03C832B838B819C8181309105C7
:1035C00031F02B813C812230310531F00AC08A81F3
:1035D00080680E94BE1105C08A81805C80680E945C
:1035E000BE110F900F900F900F90CF91DF91089523
:1035F000DF93CF9300D00F92CDB7DEB769837A8384
:103600008B8389819A81692F41E00E944B0A0F9038
:103610000F900F90CF91DF910895DF93CF9300D05B
:103620000F92CDB7DEB769837A838B838B8181302C
:1036300039F489819A81692F41E00E944B0B09C0BE
:103640008B81882331F489819A81692F40E00E941F
:103650004B0B0F900F900F90CF91DF910895DF9358
:10366000CF9300D00F92CDB7DEB769837A838B8377
:103670008B81813039F489819A81692F40E00E94E1
:103680004B0B09C08B81882331F489819A81692F82
:1036900041E00E944B0B0F900F900F90CF91DF9164
:1036A0000895DF93CF93CDB7DEB76F970FB6F89439
:1036B000DEBF0FBECDBF6D8F7E8F8F8F6D8D7E8DE8
:1036C0008F8D0E940D1B80E090E0AAEFB3E4898FFC
:1036D0009A8FAB8FBC8F698D7A8D8B8D9C8D20E0FE
:1036E00030E04AEF54E40E941F02DC01CB018D8BD5
:1036F0009E8BAF8BB88F6D897E898F89988D20E0E6
:1037000030E040E85FE30E94250488232CF481E048
:1037100090E09C8B8B8B3FC06D897E898F89988DC3
:1037200020E03FEF4FE757E40E94C50318164CF521
:10373000698D7A8D8B8D9C8D20E030E040E251E4E4
:103740000E941F02DC01CB01BC01CD010E94490097
:10375000DC01CB019C8B8B8B0FC088EC90E09A8BAB
:10376000898B89899A890197F1F79A8B898B8B8943
:103770009C8901979C8B8B8B8B899C89009769F71F
:1037800014C06D897E898F89988D0E944900DC0163
:10379000CB019C8B8B8B8B899C89988B8F878F859A
:1037A00098890197F1F7988B8F876D8D7E8D8F8D1E
:1037B0000E942F1B80E090E0AAEFB3E48B879C87E8
:1037C000AD87BE876B857C858D859E8520E030E04A
:1037D0004AEF54E40E941F02DC01CB018F839887DB
:1037E000A987BA876F81788589859A8520E030E03E
:1037F00040E85FE30E94250488232CF481E090E0F8
:103800009E838D833FC06F81788589859A8520E06E
:103810003FEF4FE757E40E94C50318164CF56B8540
:103820007C858D859E8520E030E040E251E40E9459
:103830001F02DC01CB01BC01CD010E944900DC016B
:10384000CB019E838D830FC088EC90E09C838B839B
:103850008B819C810197F1F79C838B838D819E8165
:1038600001979E838D838D819E81009769F714C097
:103870006F81788589859A850E944900DC01CB019A
:103880009E838D838D819E819A83898389819A818C
:103890000197F1F79A8389836F960FB6F894DEBF8C
:1038A0000FBECDBFCF91DF910895DF93CF9300D0AE
:1038B000CDB7DEB79A83898389816FEF0E94C909EA
:1038C0000F900F90CF91DF910895DF93CF93CDB7F5
:1038D000DEB762970FB6F894DEBF0FBECDBF9C87F0
:1038E0008B876D87CE0101969F878E87E0EAF0E097
:1038F000F98BE88BFAE0FA8BE889F98900808889EE
:1039000099890196998B888BEE85FF8500828E853B
:103910009F8501969F878E879A8991509A8BEA8915
:10392000EE2351F78C85882379F44B858D85282FDC
:1039300030E0CE010196FC01E20FF31F9081842F4D
:10394000692F0E940A0A13C08C85813081F44B854F
:103950008D85282F30E0CE010196FC01E20FF31F88
:103960008081982F9095842F692F0E940A0A629671
:103970000FB6F894DEBF0FBECDBFCF91DF91089593
:10398000DF93CF9300D00F92CDB7DEB769837A83F0
:103990008B8389819A81692F40E00E944B0A8B8139
:1039A000813031F489819A81692F41E00E944B0B6B
:1039B0000F900F900F90CF91DF910895DF93CF93E9
:1039C00000D000D0CDB7DEB76A837B838C831982A9
:1039D0008A819B81692F0E948D0C898389810F9038
:1039E0000F900F900F90CF91DF9108950F931F9339
:1039F000DF93CF93CDB7DEB7CE5AD0400FB6F89451
:103A0000DEBF0FBECDBF0E94880E0E94C51ACE0138
:103A10008D589F4FC457DF4F99838883CC58D0402F
:103A20008CEB90E0C257DF4F99838883CE58D0400B
:103A300093E0C057DF4F9883C059D040C257DF4F43
:103A4000E881F981CE58D0400080C257DF4F88818D
:103A50009981CE58D0400196C257DF4F9983888311
:103A6000CE58D040C457DF4FE881F981CC58D040C0
:103A70000082C457DF4F88819981CC58D04001968D
:103A8000C457DF4F99838883CC58D040C057DF4F4D
:103A90009881C059D0409150C057DF4F9883C0598A
:103AA000D040C057DF4FE881C059D040EE2331F6F7
:103AB000FE01ED58FF4F6081718182810E94C01C20
:103AC00080E00E946B0DFE01EA58FF4F82E0808388
:103AD000FE01EA58FF4F1182FE01E858FF4F1082A5
:103AE000FE01E858FF4F1182CE0186589F4FCF56F6
:103AF000DF4F99838883C159D04089EB90E0CD5640
:103B0000DF4F99838883C359D04093E0CB56DF4F72
:103B10009883C559D040CD56DF4FE881F981C3590C
:103B2000D0400080CD56DF4F88819981C359D04065
:103B30000196CD56DF4F99838883C359D040CF5625
:103B4000DF4FE881F981C159D0400082CF56DF4F65
:103B500088819981C159D0400196CF56DF4F998312
:103B60008883C159D040CB56DF4F9881C559D0408A
:103B70009150CB56DF4F9883C559D040CB56DF4F7D
:103B8000E881C559D040EE2331F6CE0183589F4FCE
:103B9000CA56DF4F99838883C659D04086EB90E0A0
:103BA000C856DF4F99838883C859D04093E0C656E2
:103BB000DF4F9883CA59D040C856DF4FE881F9815A
:103BC000C859D0400080C856DF4F88819981C859B4
:103BD000D0400196C856DF4F99838883C859D0409A
:103BE000CA56DF4FE881F981C659D0400082CA56D3
:103BF000DF4F88819981C659D0400196CA56DF4F60
:103C000099838883C659D040C656DF4F9881CA59D8
:103C1000D0409150C656DF4F9883CA59D040C656FF
:103C2000DF4FE881CA59D040EE2331F6CE018058EB
:103C30009F4FC556DF4F99838883CB59D04083EB84
:103C400090E0C356DF4F99838883CD59D04093E0ED
:103C5000C156DF4F9883CF59D040C356DF4FE8811C
:103C6000F981CD59D0400080C356DF4F88819981BA
:103C7000CD59D0400196C356DF4F99838883CD59E3
:103C8000D040C556DF4FE881F981CB59D040008242
:103C9000C556DF4F88819981CB59D0400196C556D2
:103CA000DF4F99838883CB59D040C156DF4F98812D
:103CB000CF59D0409150C156DF4F9883CF59D04053
:103CC000C156DF4FE881CF59D040EE2331F6CE0107
:103CD0008D579F4FC056DF4F99838883C05AD0407D
:103CE00080EB90E0CE55DF4F99838883C25AD04055
:103CF00093E0CC55DF4F9883C45AD040CE55DF4F68
:103D0000E881F981C25AD0400080CE55DF4F8881CA
:103D10009981C25AD0400196CE55DF4F998388834E
:103D2000C25AD040C056DF4FE881F981C05AD04016
:103D30000082C056DF4F88819981C05AD0400196D9
:103D4000C056DF4F99838883C05AD040CC55DF4F8F
:103D50009881C45AD0409150CC55DF4F9883C45AB3
:103D6000D040CC55DF4FE881C45AD040EE2331F625
:103D7000CE018A579F4FCB55DF4F99838883C55A11
:103D8000D0408DEA90E0C955DF4F99838883C75AA8
:103D9000D04093E0C755DF4F9883C95AD040C955EA
:103DA000DF4FE881F981C75AD0400080C955DF4F05
:103DB00088819981C75AD0400196C955DF4F9983B0
:103DC0008883C75AD040CB55DF4FE881F981C55A67
:103DD000D0400082CB55DF4F88819981C55AD040B1
:103DE0000196CB55DF4F99838883C55AD040C7557C
:103DF000DF4F9881C95AD0409150C755DF4F988303
:103E0000C95AD040C755DF4FE881C95AD040EE2388
:103E100031F6CE0187579F4FC655DF4F9983888370
:103E2000CA5AD0408AEA90E0C455DF4F998388830C
:103E3000CC5AD04093E0C255DF4F9883CE5AD04041
:103E4000C455DF4FE881F981CC5AD0400080C45579
:103E5000DF4F88819981CC5AD0400196C455DF4FFD
:103E600099838883CC5AD040C655DF4FE881F981C9
:103E7000CA5AD0400082C655DF4F88819981CA5AFC
:103E8000D0400196C655DF4F99838883CA5AD040E7
:103E9000C255DF4F9881CE5AD0409150C255DF4F66
:103EA0009883CE5AD040C255DF4FE881CE5AD040D9
:103EB000EE2331F6FE01E658FF4F60817181828169
:103EC0000E94F81AFE01E358FF4F608171818281E0
:103ED0000E94F81AFE01E058FF4F608171818281D3
:103EE0000E94F81AFE01ED57FF4F608171818281B7
:103EF0000E94F81AFE01EA57FF4F608171818281AA
:103F00000E94F81AFE01E757FF4F6081718182819C
:103F10000E94F81AFE01EA58FF4F808191810E94A9
:103F2000551CFE01E858FF4F808191810E94551C6D
:103F3000FE01EE58FF4F81E0808317C3FE01EE586B
:103F4000FF4F8081883008F090C1FE01EA58FF4F92
:103F500080819181FE01EE58FF4F60810E94651CB7
:103F6000FE01E858FF4F80819181FE01EE58FF4F1E
:103F700060810E94651CFE01E359FF4F80E090E0E4
:103F8000A0E2B1E480839183A283B3838E010759B9
:103F90001F4FFE01E359FF4F608171818281938140
:103FA00020E030E04AEF54E40E941F02DC01CB0124
:103FB000F80180839183A283B383FE01E759FF4F09
:103FC000608171818281938120E030E040E85FE38D
:103FD0000E942504882344F4FE01E959FF4F81E043
:103FE00090E09183808364C0FE01E759FF4F6081B8
:103FF00071818281938120E03FEF4FE757E40E9477
:10400000C50318160CF043C0FE01E359FF4F608151
:1040100071818281938120E030E040E251E40E948E
:104020001F02DC01CB018E0109591F4FBC01CD01DC
:104030000E944900DC01CB01F801918380831FC0FD
:10404000FE01EB59FF4F88EC90E091838083FE01E5
:10405000EB59FF4F808191810197F1F7FE01EB59F8
:10406000FF4F91838083DE01A959BF4FFE01E959BB
:10407000FF4F80819181019711969C938E93FE0151
:10408000E959FF4F808191810097D1F627C08E01B9
:1040900009591F4FFE01E759FF4F608171818281ED
:1040A00093810E944900DC01CB01F8019183808358
:1040B000DE01AD59BF4FFE01E959FF4F808191816B
:1040C0008D939C93FE01ED59FF4F80819181019763
:1040D000F1F7FE01ED59FF4F91838083FE01E65811
:1040E000FF4F6081718182810E940D1BFE01E757A5
:1040F000FF4F6081718182810E940D1B81E080935E
:10410000D200FE01E15AFF4F80E090E0AAEFB4E454
:1041100080839183A283B3838E01055A1F4FFE01D2
:10412000E15AFF4F608171818281938120E030E00C
:104130004AEF54E40E941F02DC01CB01F8018083A6
:104140009183A283B383FE01E55AFF4F60817181A1
:104150008281938120E030E040E85FE30E94250403
:10416000882344F4FE01E75AFF4F81E090E09183F9
:10417000808364C0FE01E55AFF4F608171818281B6
:10418000938120E03FEF4FE757E40E94C5031816E4
:104190000CF043C0FE01E15AFF4F608171818281C2
:1041A000938120E030E040E251E40E941F02DC01F4
:1041B000CB018E01075A1F4FBC01CD010E9449005F
:1041C000DC01CB01F801918380831FC0FE01E95A15
:1041D000FF4F88EC90E091838083FE01E95AFF4F06
:1041E000808191810197F1F7FE01E95AFF4F918398
:1041F0008083DE01A75ABF4FFE01E75AFF4F80813F
:104200009181019711969C938E93FE01E75AFF4F7F
:10421000808191810097D1F628C08E01075A1F4FE7
:10422000FE01E55AFF4F60817181828193810E9476
:104230004900DC01CB01F80191838083DE01AB5A98
:10424000BF4FFE01E75AFF4F8081918111969C93E9
:104250008E93FE01EB5AFF4F808191810197F1F718
:10426000FE01EB5AFF4F91838083FE01EE58FF4F12
:104270008081883008F470C1FE01EE58FF4F8081C4
:104280008A3008F069C1FE01E757FF4F60817181F4
:1042900082810E942F1BFE01EA58FF4F808191818D
:1042A000FE01EE58FF4F60810E94651CFE01E85838
:1042B000FF4F80819181FE01EE58FF4F60810E9487
:1042C000651CFE01EF5AFF4F80E090E0A0E2B1E4F0
:1042D00080839183A283B3838E01035B1F4FFE0112
:1042E000EF5AFF4F608171818281938120E030E03D
:1042F0004AEF54E40E941F02DC01CB01F8018083E5
:104300009183A283B383FE01E35BFF4F60817181E0
:104310008281938120E030E040E85FE30E94250441
:10432000882344F4FE01E55BFF4F81E090E0918338
:10433000808364C0FE01E35BFF4F608171818281F5
:10434000938120E03FEF4FE757E40E94C503181622
:104350000CF043C0FE01EF5AFF4F608171818281F2
:10436000938120E030E040E251E40E941F02DC0132
:10437000CB018E01055B1F4FBC01CD010E9449009E
:10438000DC01CB01F801918380831FC0FE01E75B54
:10439000FF4F88EC90E091838083FE01E75BFF4F45
:1043A000808191810197F1F7FE01E75BFF4F9183D7
:1043B0008083DE01A55BBF4FFE01E55BFF4F80817F
:1043C0009181019711969C938E93FE01E55BFF4FBF
:1043D000808191810097D1F627C08E01055B1F4F28
:1043E000FE01E35BFF4F60817181828193810E94B6
:1043F0004900DC01CB01F80191838083DE01A95BD8
:10440000BF4FFE01E55BFF4F808191818D939C93AF
:10441000FE01E95BFF4F808191810197F1F7FE0179
:10442000E95BFF4F91838083FE01E658FF4F608177
:10443000718182810E940D1BFE01EA57FF4F60814E
:10444000718182810E940D1B82E08093D200FE0167
:10445000ED5BFF4F80E090E0AAEFB4E480839183AE
:10446000A283B3838E01015C1F4FFE01ED5BFF4F02
:10447000608171818281938120E030E04AEF54E4D1
:104480000E941F02DC01CB01F80180839183A2838B
:10449000B383FE01FF96608171818281938120E068
:1044A00030E040E85FE30E94250488232CF481E09B
:1044B00090E09EAF8DAF46C0FE01FF966081718196
:1044C0008281938120E03FEF4FE757E40E94C503CC
:1044D000181664F5FE01ED5BFF4F608171818281EA
:1044E000938120E030E040E251E40E941F02DC01B1
:1044F000CB01BC01CD010E944900DC01CB019EAF84
:104500008DAF0FC088EC90E09CAF8BAF8BAD9CADB6
:104510000197F1F79CAF8BAF8DAD9EAD01979EAF2C
:104520008DAF8DAD9EAD009769F716C0FE01FF9669
:1045300060817181828193810E944900DC01CB01FD
:104540009EAF8DAF8DAD9EAD9AAF89AF89AD9AAD5F
:104550000197F1F79AAF89AFDE01AE58BF4FFE0168
:10456000EE58FF4F80818F5F8C93FE01EE58FF4F16
:1045700080818A3008F4E2CCFE01EA57FF4F608167
:10458000718182810E942F1BFE01E658FF4F6081DE
:10459000718182810E942F1BFE01EF58FF4F81E045
:1045A000808340C2FE01EF58FF4F8081883008F0C1
:1045B0000DC1FE01EA58FF4F80819181FE01EF5845
:1045C000FF4F60810E94651CFE01E858FF4F80810B
:1045D0009181FE01EF58FF4F60810E94651C80E0D1
:1045E00090E0A0E2B1E48DAB9EABAFABB8AF6DA9EC
:1045F0007EA98FA998AD20E030E04AEF54E40E94F4
:104600001F02DC01CB0189AB9AABABABBCAB69A998
:104610007AA98BA99CA920E030E040E85FE30E94E2
:10462000250488232CF481E090E098AB8FA73FC04D
:1046300069A97AA98BA99CA920E03FEF4FE757E42D
:104640000E94C50318164CF56DA97EA98FA998ADD7
:1046500020E030E040E251E40E941F02DC01CB0187
:10466000BC01CD010E944900DC01CB0198AB8FA7B2
:104670000FC088EC90E09EA78DA78DA59EA5019701
:10468000F1F79EA78DA78FA598A9019798AB8FA743
:104690008FA598A9009769F714C069A97AA98BA971
:1046A0009CA90E944900DC01CB0198AB8FA78FA584
:1046B00098A99CA78BA78BA59CA50197F1F79CA710
:1046C0008BA7FE01ED57FF4F6081718182810E94AF
:1046D0000D1BFE01E058FF4F6081718182810E94B5
:1046E0000D1B83E08093D20080E090E0AAEFB4E459
:1046F0008FA398A7A9A7BAA76FA178A589A59AA5FE
:1047000020E030E04AEF54E40E941F02DC01CB01BC
:104710008BA39CA3ADA3BEA36BA17CA18DA19EA1E5
:1047200020E030E040E85FE30E94250488232CF479
:1047300081E090E09AA389A33FC06BA17CA18DA1E9
:104740009EA120E03FEF4FE757E40E94C5031816F3
:104750004CF56FA178A589A59AA520E030E040E24C
:1047600051E40E941F02DC01CB01BC01CD010E947B
:104770004900DC01CB019AA389A30FC088EC90E02B
:1047800098A38F8F8F8D98A10197F1F798A38F8FA2
:1047900089A19AA101979AA389A389A19AA10097B7
:1047A00069F714C06BA17CA18DA19EA10E94490054
:1047B000DC01CB019AA389A389A19AA19E8F8D8F39
:1047C0008D8D9E8D0197F1F79E8F8D8FFE01EF5895
:1047D000FF4F8081883008F41CC1FE01EF58FF4F65
:1047E00080818A3008F015C1FE01E058FF4F6081DA
:1047F000718182810E942F1BFE01EA58FF4F808148
:104800009181FE01EF58FF4F60810E94651CFE01FF
:10481000E858FF4F80819181FE01EF58FF4F608182
:104820000E94651C80E090E0A0E2B1E4898F9A8F3D
:10483000AB8FBC8F698D7A8D8B8D9C8D20E030E0A5
:104840004AEF54E40E941F02DC01CB018D8B9E8B4A
:10485000AF8BB88F6D897E898F89988D20E030E08D
:1048600040E85FE30E94250488232CF481E090E077
:104870009C8B8B8B3FC06D897E898F89988D20E0C2
:104880003FEF4FE757E40E94C50318164CF5698DBA
:104890007A8D8B8D9C8D20E030E040E251E40E94C7
:1048A0001F02DC01CB01BC01CD010E944900DC01EB
:1048B000CB019C8B8B8B0FC088EC90E09A8B898B03
:1048C00089899A890197F1F79A8B898B8B899C89C1
:1048D00001979C8B8B8B8B899C89009769F714C0FF
:1048E0006D897E898F89988D0E944900DC01CB01FA
:1048F0009C8B8B8B8B899C89988B8F878F859889D4
:104900000197F1F7988B8F87FE01ED57FF4F60817C
:10491000718182810E940D1BFE01E358FF4F60816F
:10492000718182810E940D1B84E08093D20080E01F
:1049300090E0AAEFB4E48B879C87AD87BE876B8538
:104940007C858D859E8520E030E04AEF54E40E940E
:104950001F02DC01CB018F839887A987BA876F81FB
:10496000788589859A8520E030E040E85FE30E9401
:10497000250488232CF481E090E09E838D833FC042
:104980006F81788589859A8520E03FEF4FE757E46E
:104990000E94C50318164CF56B857C858D859E8518
:1049A00020E030E040E251E40E941F02DC01CB0134
:1049B000BC01CD010E944900DC01CB019E838D83A7
:1049C0000FC088EC90E09C838B838B819C81019746
:1049D000F1F79C838B838D819E8101979E838D83CC
:1049E0008D819E81009769F714C06F8178858985D4
:1049F0009A850E944900DC01CB019E838D838D81C5
:104A00009E819A83898389819A810197F1F79A839C
:104A10008983DE01AF58BF4FFE01EF58FF4F808101
:104A20008F5F8C93FE01EF58FF4F80818A3008F42E
:104A3000B9CDFE01E358FF4F6081718182810E94F0
:104A40002F1BFE01ED57FF4F6081718182810E9413
:104A50002F1B6ECA1F920F920FB60F9211240F9345
:104A60001F932F933F934F935F936F937F938F93F6
:104A70009F93AF93BF93EF93FF93DF93CF93CDB704
:104A8000DEB7C254D140DEBFCDBF0E94880E81E0A8
:104A900060E00E94CF1A80E690E00E949C1A82E0BB
:104AA00060E00E94CF1A80E790E00E949C1A82E0AA
:104AB00067E041E00E944B0AFE01E15FFE4F82E0A9
:104AC0008083FE01E15FFE4F1182FE01EF5EFE4F2B
:104AD0001082FE01EF5EFE4F1182CE018D5E9E4F71
:104AE000CB5DDE4F99838883C552D1408EEC90E038
:104AF000C95DDE4F99838883C752D14093E0C75D7B
:104B0000DE4F9883C952D140C95DDE4FE881F981FB
:104B1000C752D1400080C95DDE4F88819981C7525C
:104B2000D1400196C95DDE4F99838883C752D14039
:104B3000CB5DDE4FE881F981C552D1400082CB5D6B
:104B4000DE4F88819981C552D1400196CB5DDE4F01
:104B500099838883C552D140C75DDE4F9881C95281
:104B6000D1409150C75DDE4F9883C952D140C75D97
:104B7000DE4FE881C952D140EE2331F6CE018A5E84
:104B80009E4FC65DDE4F99838883CA52D1408BEC1D
:104B900090E0C45DDE4F99838883CC52D14093E08E
:104BA000C25DDE4F9883CE52D140C45DDE4FE881B6
:104BB000F981CC52D1400080C45DDE4F888199815B
:104BC000CC52D1400196C45DDE4F99838883CC528C
:104BD000D140C65DDE4FE881F981CA52D1400082E2
:104BE000C65DDE4F88819981CA52D1400196C65D6B
:104BF000DE4F99838883CA52D140C25DDE4F9881CF
:104C0000CE52D1409150C25DDE4F9883CE52D140FA
:104C1000C25DDE4FE881CE52D140EE2331F6CE01A7
:104C2000875E9E4FC15DDE4F99838883CF52D1400E
:104C300088EC90E0CF5CDE4F99838883C153D140EC
:104C400093E0CD5CDE4F9883C353D140CF5CDE4F01
:104C5000E881F981C153D1400080CF5CDE4F88816B
:104C60009981C153D1400196CF5CDE4F99838883EF
:104C7000C153D140C15DDE4FE881F981CF52D140AF
:104C80000082C15DDE4F88819981CF52D14001966B
:104C9000C15DDE4F99838883CF52D140CD5CDE4F1A
:104CA0009881C353D1409150CD5CDE4F9883C3535C
:104CB000D140CD5CDE4FE881C353D140EE2331F6C5
:104CC000CE01845E9E4FCC5CDE4F99838883C453B3
:104CD000D14085EC90E0CA5CDE4F99838883C6534F
:104CE000D14093E0C85CDE4F9883C853D140CA5C82
:104CF000DE4FE881F981C653D1400080CA5CDE4FA7
:104D000088819981C653D1400196CA5CDE4F998350
:104D10008883C653D140CC5CDE4FE881F981C4530F
:104D2000D1400082CC5CDE4F88819981C453D14050
:104D30000196CC5CDE4F99838883C453D140C85C14
:104D4000DE4F9881C853D1409150C85CDE4F9883A4
:104D5000C853D140C85CDE4FE881C853D140EE2330
:104D600031F6CE01815E9E4FC75CDE4F998388830A
:104D7000C953D14082EC90E0C55CDE4F99838883B3
:104D8000CB53D14093E0C35CDE4F9883CD53D140E9
:104D9000C55CDE4FE881F981CB53D1400080C55C12
:104DA000DE4F88819981CB53D1400196C55CDE4F9F
:104DB00099838883CB53D140C75CDE4FE881F9816A
:104DC000C953D1400082C75CDE4F88819981C953A5
:104DD000D1400196C75CDE4F99838883C953D14087
:104DE000C35CDE4F9881CD53D1409150C35CDE4F00
:104DF0009883CD53D140C35CDE4FE881CD53D14081
:104E0000EE2331F6CE018E5D9E4FC25CDE4F99835C
:104E10008883CE53D1408FEB90E0C05CDE4F998306
:104E20008883C054D14093E0CE5BDE4F9883C25458
:104E3000D140C05CDE4FE881F981C054D140008090
:104E4000C05CDE4F88819981C054D1400196C05C1E
:104E5000DE4F99838883C054D140C25CDE4FE88125
:104E6000F981CE53D1400082C25CDE4F88819981A6
:104E7000CE53D1400196C25CDE4F99838883CE53D6
:104E8000D140CE5BDE4F9881C254D1409150CE5B71
:104E9000DE4F9883C254D140CE5BDE4FE881C254CE
:104EA000D140EE2331F6FE01ED5EFE4F608171814F
:104EB00082810E94F81AFE01EA5EFE4F60817181D4
:104EC00082810E94F81AFE01E75EFE4F60817181C7
:104ED00082810E94F81AFE01E45EFE4F60817181BA
:104EE00082810E94F81AFE01E15EFE4F60817181AD
:104EF00082810E94F81AFE01EE5DFE4F6081718191
:104F000082810E94F81AFE01E15FFE4F808191814B
:104F10000E94551CFE01EF5EFE4F808191810E9430
:104F2000551CFE01E95FFE4F80E090E0AAE7B4E483
:104F300080839183A283B3838E010D5F1E4FFE0198
:104F4000E95FFE4F608171818281938120E030E0D2
:104F50004AEF54E40E941F02DC01CB01F801808378
:104F60009183A283B383FE01ED5FFE4F6081718167
:104F70008281938120E030E040E85FE30E942504D5
:104F8000882344F4FE01EF5FFE4F81E090E09183BF
:104F9000808364C0FE01ED5FFE4F6081718182817C
:104FA000938120E03FEF4FE757E40E94C5031816B6
:104FB0000CF043C0FE01E95FFE4F60817181828188
:104FC000938120E030E040E251E40E941F02DC01C6
:104FD000CB018E010F5F1E4FBC01CD010E94490025
:104FE000DC01CB01F801918380831FC0FE01E150F9
:104FF000FF4F88EC90E091838083FE01E150FF4FEA
:10500000808191810197F1F7FE01E150FF4F91837B
:105010008083DE01AF5FBE4FFE01EF5FFE4F8081F8
:105020009181019711969C938E93FE01EF5FFE4F45
:10503000808191810097D1F628C08E010F5F1E4FAD
:10504000FE01ED5FFE4F60817181828193810E943C
:105050004900DC01CB01F80191838083DE01A3507C
:10506000BF4FFE01EF5FFE4F8081918111969C93AF
:105070008E93FE01E350FF4F808191810197F1F7FC
:10508000FE01E350FF4F918380838091D2008130F5
:1050900029F08091D200823009F073C7FE01E15FF0
:1050A000FE4F8081918160E00E94651CFE01EF5EF1
:1050B000FE4F8081918160E00E94651CFE01ED5EE3
:1050C000FE4F6081718182810E940D1BFE01EE5DA9
:1050D000FE4F6081718182810E942F1BFE01E15E83
:1050E000FE4F6081718182810E942F1BFE01E25F71
:1050F000FE4F81E08083D7C0FE01EF5EFE4F8081CE
:105100009181FE01E25FFE4F60810E94651CFE01FD
:10511000E15EFE4F6081718182810E940D1BFE0164
:10512000E750FF4F80E090E0AAE7B4E480839183EA
:10513000A283B3838E010B501F4FFE01E750FF4F38
:10514000608171818281938120E030E04AEF54E4F4
:105150000E941F02DC01CB01F80180839183A283AE
:10516000B383FE01EB50FF4F608171818281938197
:1051700020E030E040E85FE30E942504882344F407
:10518000FE01ED50FF4F81E090E09183808364C089
:10519000FE01EB50FF4F608171818281938120E09D
:1051A0003FEF4FE757E40E94C50318160CF043C0C9
:1051B000FE01E750FF4F608171818281938120E081
:1051C00030E040E251E40E941F02DC01CB018E017D
:1051D0000D501F4FBC01CD010E944900DC01CB01E5
:1051E000F801918380831FC0FE01EF50FF4F88ECD0
:1051F00090E091838083FE01EF50FF4F8081918189
:105200000197F1F7FE01EF50FF4F91838083DE019C
:10521000AD50BF4FFE01ED50FF4F8081918101974E
:1052200011969C938E93FE01ED50FF4F80819181EA
:105230000097D1F627C08E010D501F4FFE01EB5095
:10524000FF4F60817181828193810E944900DC015E
:10525000CB01F80191838083DE01A151BF4FFE0194
:10526000ED50FF4F808191818D939C93FE01E15120
:10527000FF4F808191810197F1F7FE01E151FF4FCE
:1052800091838083FE01E15EFE4F608171818281A6
:105290000E942F1BDE01A25FBE4FFE01E25FFE4FA8
:1052A00080818F5F8C93FE01E25FFE4F80818430AE
:1052B00008F422CFFE01E45EFE4F6081718182819D
:1052C0000E940D1BFE01E15FFE4F8081918160E035
:1052D0000E94651CFE01EF5EFE4F8081918160E0BF
:1052E0000E94651CFE01E551FF4F80E090E0AAE7B7
:1052F000B4E480839183A283B3838E0109511F4F4D
:10530000FE01E551FF4F608171818281938120E030
:1053100030E04AEF54E40E941F02DC01CB01F801A7
:1053200080839183A283B383FE01E951FF4F6081A3
:1053300071818281938120E030E040E85FE30E9448
:105340002504882344F4FE01EB51FF4F81E090E0F7
:105350009183808364C0FE01E951FF4F60817181B8
:105360008281938120E03FEF4FE757E40E94C5031D
:1053700018160CF043C0FE01E551FF4F60817181AA
:105380008281938120E030E040E251E40E941F02DC
:10539000DC01CB018E010B511F4FBC01CD010E94DE
:1053A0004900DC01CB01F801918380831FC0FE011D
:1053B000ED51FF4F88EC90E091838083FE01ED5129
:1053C000FF4F808191810197F1F7FE01ED51FF4F71
:1053D00091838083DE01AB51BF4FFE01EB51FF4F44
:1053E00080819181019711969C938E93FE01EB51E0
:1053F000FF4F808191810097D1F628C08E010B511B
:105400001F4FFE01E951FF4F6081718182819381BD
:105410000E944900DC01CB01F80191838083DE0109
:10542000AF51BF4FFE01EB51FF4F8081918111962B
:105430009C938E93FE01EF51FF4F808191810197E4
:10544000F1F7FE01EF51FF4F91838083FE01E35F8F
:10545000FE4F84E08083C9C4FE01E35FFE4F84E019
:10546000808382E060E00E94CF1A85E790E00E948E
:105470009C1AFE01E15FFE4F8081918164E00E94F1
:10548000651CFE01EF5EFE4F8081918164E00E9409
:10549000651CFE01E352FF4F80E090E0AAEFB4E408
:1054A00080839183A283B3838E0107521F4FFE0135
:1054B000E352FF4F608171818281938120E030E06F
:1054C0004AEF54E40E941F02DC01CB01F801808303
:1054D0009183A283B383FE01E752FF4F6081718104
:1054E0008281938120E030E040E85FE30E94250460
:1054F000882344F4FE01E952FF4F81E090E091835C
:10550000808364C0FE01E752FF4F60817181828118
:10551000938120E03FEF4FE757E40E94C503181640
:105520000CF043C0FE01E352FF4F60817181828124
:10553000938120E030E040E251E40E941F02DC0150
:10554000CB018E0109521F4FBC01CD010E944900C1
:10555000DC01CB01F801918380831FC0FE01EB5277
:10556000FF4F88EC90E091838083FE01EB52FF4F68
:10557000808191810197F1F7FE01EB52FF4F9183FA
:105580008083DE01A952BF4FFE01E952FF4F8081A7
:105590009181019711969C938E93FE01E952FF4FE2
:1055A000808191810097D1F627C08E0109521F4F4B
:1055B000FE01E752FF4F60817181828193810E94D9
:1055C0004900DC01CB01F80191838083DE01AD52FB
:1055D000BF4FFE01E952FF4F808191818D939C93D3
:1055E000FE01ED52FF4F808191810197F1F7FE019D
:1055F000ED52FF4F91838083FE01E35FFE4F83E016
:10560000808382E063E00E94CF1A8EE790E00E94E0
:105610009C1AFE01E15FFE4F8081918163E00E9450
:10562000651CFE01EF5EFE4F8081918163E00E9468
:10563000651CFE01E153FF4F80E090E0AAEFB4E467
:1056400080839183A283B3838E0105531F4FFE0194
:10565000E153FF4F608171818281938120E030E0CE
:105660004AEF54E40E941F02DC01CB01F801808361
:105670009183A283B383FE01E553FF4F6081718163
:105680008281938120E030E040E85FE30E942504BE
:10569000882344F4FE01E753FF4F81E090E09183BB
:1056A000808364C0FE01E553FF4F60817181828178
:1056B000938120E03FEF4FE757E40E94C50318169F
:1056C0000CF043C0FE01E153FF4F60817181828184
:1056D000938120E030E040E251E40E941F02DC01AF
:1056E000CB018E0107531F4FBC01CD010E94490021
:1056F000DC01CB01F801918380831FC0FE01E953D7
:10570000FF4F88EC90E091838083FE01E953FF4FC7
:10571000808191810197F1F7FE01E953FF4F918359
:105720008083DE01A753BF4FFE01E753FF4F808107
:105730009181019711969C938E93FE01E753FF4F41
:10574000808191810097D1F627C08E0107531F4FAA
:10575000FE01E553FF4F60817181828193810E9438
:105760004900DC01CB01F80191838083DE01AB535A
:10577000BF4FFE01E753FF4F808191818D939C9332
:10578000FE01EB53FF4F808191810197F1F7FE01FC
:10579000EB53FF4F91838083FE01E35FFE4F82E076
:1057A000808382E063E00E94CF1A80E890E00E944C
:1057B0009C1AFE01E15FFE4F8081918162E00E94B0
:1057C000651CFE01EF5EFE4F8081918162E00E94C8
:1057D000651CFE01EF53FF4F80E090E0AAEFB4E4B8
:1057E00080839183A283B3838E0103541F4FFE01F4
:1057F000EF53FF4F608171818281938120E030E01F
:105800004AEF54E40E941F02DC01CB01F8018083BF
:105810009183A283B383FE01E354FF4F60817181C2
:105820008281938120E030E040E85FE30E9425041C
:10583000882344F4FE01E554FF4F81E090E091831A
:10584000808364C0FE01E354FF4F608171818281D7
:10585000938120E03FEF4FE757E40E94C5031816FD
:105860000CF043C0FE01EF53FF4F608171818281D4
:10587000938120E030E040E251E40E941F02DC010D
:10588000CB018E0105541F4FBC01CD010E94490080
:10589000DC01CB01F801918380831FC0FE01E75436
:1058A000FF4F88EC90E091838083FE01E754FF4F27
:1058B000808191810197F1F7FE01E754FF4F9183B9
:1058C0008083DE01A554BF4FFE01E554FF4F808168
:1058D0009181019711969C938E93FE01E554FF4FA1
:1058E000808191810097D1F627C08E0105541F4F0A
:1058F000FE01E354FF4F60817181828193810E9498
:105900004900DC01CB01F80191838083DE01A954B9
:10591000BF4FFE01E554FF4F808191818D939C9391
:10592000FE01E954FF4F808191810197F1F7FE015B
:10593000E954FF4F9183808382E063E00E94CF1A95
:1059400082E890E00E949C1AFE01E15FFE4F808198
:10595000918161E00E94651CFE01EF5EFE4F808137
:10596000918161E00E94651CFE01ED54FF4F80E0D3
:1059700090E0AAEFB4E480839183A283B3838E0185
:1059800001551F4FFE01ED54FF4F608171818281EF
:10599000938120E030E04AEF54E40E941F02DC01D2
:1059A000CB01F80180839183A283B383FE01E1558B
:1059B000FF4F608171818281938120E030E040E877
:1059C0005FE30E942504882344F4FE01E355FF4F62
:1059D00081E090E09183808364C0FE01E155FF4F38
:1059E000608171818281938120E03FEF4FE757E42E
:1059F0000E94C50318160CF043C0FE01ED54FF4F82
:105A0000608171818281938120E030E040E251E445
:105A10000E941F02DC01CB018E0103551F4FBC0108
:105A2000CD010E944900DC01CB01F8019183808304
:105A30001FC0FE01E555FF4F88EC90E09183808305
:105A4000FE01E555FF4F808191810197F1F7FE013D
:105A5000E555FF4F91838083DE01A355BF4FFE01C3
:105A6000E355FF4F80819181019711969C938E930E
:105A7000FE01E355FF4F808191810097D1F627C049
:105A80008E0103551F4FFE01E155FF4F608171816B
:105A9000828193810E944900DC01CB01F80191834E
:105AA0008083DE01A755BF4FFE01E355FF4F808184
:105AB00091818D939C93FE01E755FF4F80819181E9
:105AC0000197F1F7FE01E755FF4F91838083FE01B7
:105AD000E35FFE4F81E080830E94C51AFE01EB5513
