:020000040000FA
:100000000C9463000C948B000C948B000C948B006C
:100010000C948B000C948B000C948B000C948B0034
:100020000C948B000C948B000C948B000C94FF04AC
:100030000C948B000C948B000C948B000C948B0014
:100040000C94B5040C948B000C9483040C945D0404
:100050000C948B000C948B000C948B000C948B00F4
:100060000C948B000C948B000000000024002700EF
:100070002A0000000000250028002B0000000000DE
:1000800023002600290004040404040404040202DA
:100090000202020203030303030301020408102007
:1000A0004080010204081020010204081020000012
:1000B0000008000201000003040700000000000027
:1000C00000000006970911241FBECFEFD8E0DEBF65
:1000D000CDBF11E0A0E0B1E0EAEAF9E102C005908D
:1000E0000D92A036B107D9F722E0A0E6B1E001C039
:1000F0001D92A335B207E1F710E0C2E6D0E004C0DC
:100100002197FE010E94C70AC136D107C9F70E9494
:1001100075060C94C80C0C9400008F929F92AF92BD
:10012000BF92FF920F931F93CF93DF93F090320211
:100130002BE02F1508F44CC02091340208E512E0A2
:10014000021B110927FD1395000F111F000F111F2E
:1001500020913302C8E8D0E0C21BD10927FDD39516
:10016000CC0FDD1FCC0FDD1F4E010D2E000CAA0899
:10017000BB089801012E000C440B550B28193909B6
:100180004A095B09DC010E94230A24EB30E040E0CD
:1001900050E00E94F909820E931EA41EB51E8C1613
:1001A0009D062CF0E801801691060CF4E4012297DC
:1001B000CC0FDD1F2FB7F8948F2D90E0FC01EE0FD0
:1001C000FF1FE80FF91FE35FFD4FD283C1832FBFED
:1001D000DF91CF911F910F91FF90BF90AF909F90B3
:1001E0008F9008950895AF92BF92CF92DF92EF92D1
:1001F000FF920F931F93CF93DF936C017B018B01D1
:10020000040F151FEB015E01AE18BF08C017D10720
:1002100059F06991D601ED91FC910190F081E02DAA
:10022000C6010995892B79F7C501DF91CF911F91FF
:100230000F91FF90EF90DF90CF90BF90AF90089517
:10024000FC01448155816081718180E791E00C94CB
:10025000F300FC01538D448D252F30E0842F90E076
:10026000821B930B541710F0CF96089501970895B1
:10027000FC01918D828D981761F0A28DAE0FBF2F7A
:10028000B11D5D968C91928D9F5F9F73928F90E0D0
:1002900008958FEF9FEF08952FB7F89480916C0128
:1002A00090916D01A0916E01B0916F012FBF80936D
:1002B000780190937901A0937A01B0937B0180E754
:1002C00091E00E94380197FF26C02FB7F8948091E3
:1002D0006C0190916D01A0916E01B0916F012FBFE3
:1002E000409178015091790160917A0170917B0180
:1002F000841B950BA60BB70B4091740150917501AF
:10030000609176017091770184179507A607B7076A
:10031000B0F28FEF9FEF0895FC01918D828D9817B9
:1003200031F0828DE80FF11D858D90E008958FEFFB
:100330009FEF0895FC01918D228D892F90E0805CC4
:100340009F4F821B91098F739927089580E791E051
:100350000E949A0121E0892B09F420E0822F089560
:1003600080E090E0892B29F00E94A60181110C9475
:1003700000000895FC01A48DA80FB92FB11DA35A48
:10038000BF4F2C91848D90E001968F739927848FB5
:10039000A689B7892C93A089B1898C9183708064D8
:1003A0008C93938D848D981306C00288F389E02D79
:1003B00080818F7D80830895EF92FF920F931F932A
:1003C000CF93DF93EC0181E0888F9B8D8C8D981308
:1003D0001AC0E889F989808185FF15C09FB7F89414
:1003E000EE89FF896083E889F98980818370806460
:1003F00080839FBF81E090E0DF91CF911F910F91AB
:10040000FF90EF900895F62E0B8D10E00F5F1F4FB9
:100410000F731127E02E8C8D8E110CC00FB607FCC8
:10042000FACFE889F989808185FFF5CFCE010E9456
:10043000BA01F1CFEB8DEC0FFD2FF11DE35AFF4F09
:10044000F0829FB7F8940B8FEA89FB8980818062E4
:10045000CFCF682F80E791E00C94DC01CF93DF933E
:10046000EC01888D8823B9F0AA89BB89E889F989CC
:100470008C9185FD03C0808186FD0DC00FB607FC01
:10048000F7CF8C9185FFF2CF808185FFEDCFCE0134
:100490000E94BA01E9CFDF91CF910895833081F0B6
:1004A00028F4813099F08230A9F008958730A9F0BE
:1004B0008830C9F08430B1F4809180008F7D03C012
:1004C000809180008F7780938000089584B58F7726
:1004D00084BD089584B58F7DFBCF8091B0008F7768
:1004E0008093B00008958091B0008F7DF9CFCF93B5
:1004F000DF93282F30E0F901E255FF4F8491F90195
:10050000E656FF4FD491F901EA57FF4FC491CC232F
:10051000A1F081110E944E02EC2FF0E0EE0FFF1FC0
:10052000E458FF4FA591B491EC91ED2381E090E068
:1005300009F480E0DF91CF91089580E090E0FACF58
:100540001F93CF93DF93282F30E0F901E255FF4F3F
:100550008491F901E656FF4FD491F901EA57FF4F14
:10056000C491CC23A9F0162F81110E944E02EC2FCA
:10057000F0E0EE0FFF1FEE58FF4FA591B4918FB73B
:10058000F894EC91111108C0D095DE23DC938FBF55
:10059000DF91CF911F910895DE2BF8CFCF93DF939A
:1005A00090E0FC01E656FF4F24918A579F4FFC01D3
:1005B00084918823D1F090E0880F991FFC01E859BD
:1005C000FF4FA591B491FC01EE58FF4FC591D49116
:1005D00061110EC09FB7F8948C91E22FE0958E23A5
:1005E0008C932881E223E8839FBFDF91CF91089508
:1005F0008FB7F894EC91E22BEC938FBFF6CF8E304F
:1006000008F08E508770806480937C0080917A001F
:10061000806480937A0080917A0086FDFCCF80917F
:1006200078009091790008953FB7F8948091620125
:1006300090916301A0916401B091650126B5A89BDA
:1006400005C02F3F19F00196A11DB11D3FBFBA2F64
:10065000A92F982F8827BC01CD01620F711D811D24
:10066000911D42E0660F771F881F991F4A95D1F7A9
:1006700008958F929F92AF92BF92CF92DF92EF92A6
:10068000FF924B015C010E9414036B017C010E94EC
:1006900014036C197D098E099F09683E734081051A
:1006A0009105A8F321E0821A9108A108B10888EE0B
:1006B000C80E83E0D81EE11CF11C81149104A10432
:1006C000B10429F7FF90EF90DF90CF90BF90AF90EB
:1006D0009F908F9008958F929F92AF92BF920F93A9
:1006E0001F93CF93DF93CDB7DEB7A1970FB6F894E2
:1006F000DEBF0FBECDBF19A2423008F44AE08E0122
:100700000F5D1F4F842E912CB12CA12CA5019401BB
:100710000E94620AE62FB901CA01EA3044F5E05DA1
:10072000D801EE938D01232B242B252B79F790E014
:1007300080E0109769F0FD0101900020E9F7319702
:10074000AF014A1B5B0BBD0180E791E00E94F30003
:10075000A1960FB6F894DEBF0FBECDBFDF91CF914B
:100760001F910F91BF90AF909F908F900895E95C7B
:10077000D7CFCF92DF92EF92FF92CF93DF936C01AE
:10078000990FEE08FF08F7FE17C08DE20E942902BC
:10079000EC0166277727CB016C197D098E099F092B
:1007A0004AE00E946B038C0F9D1FDF91CF91FF9059
:1007B000EF90DF90CF9008954AE0C701B601DF9136
:1007C000CF91FF90EF90DF90CF900C946B03FC01E2
:1007D00080819181009711F00C94690B08950F931B
:1007E0001F93CF93DF93EC0188819981009759F093
:1007F0002A813B812617370730F081E0DF91CF91C6
:100800001F910F9108958B016F5F7F4F0E94F20B34
:10081000009759F0998388831B830A832C813D813B
:10082000232B59F7FC011082E8CF80E0E7CFEF924D
:10083000FF920F931F93CF93DF93EC017B018A010B
:10084000BA010E94EF0328813981811114C021155A
:10085000310519F0C9010E94690B198218821D82A5
:100860001C821B821A82CE01DF91CF911F910F91C2
:10087000FF90EF9008951D830C83B701C9010E947A
:10088000C10CF1CFFB0101900020E9F73197AF01D6
:10089000461B570B0C941704FC0111821082138223
:1008A000128215821482FB0101900020E9F7319732
:1008B000AF01461B570B0C9417041F920F920FB6F3
:1008C0000F9211242F933F934F935F936F937F93D6
:1008D0008F939F93AF93BF93EF93FF9380E791E044
:1008E0000E94BA01FF91EF91BF91AF919F918F91BB
:1008F0007F916F915F914F913F912F910F900FBE1C
:100900000F901F9018951F920F920FB60F921124FF
:100910002F938F939F93EF93FF93E0918001F0913A
:1009200081018081E0918601F091870182FD1BC0E9
:100930009081809189018F5F8F7320918A01821746
:1009400041F0E0918901F0E0E059FE4F958F8093EE
:100950008901FF91EF919F918F912F910F900FBE81
:100960000F901F9018958081F4CF1F920F920FB6B1
:100970000F9211242F933F938F939F93AF93BF9325
:1009800080916C0190916D01A0916E01B0916F0109
:100990003091610123E0230F2D3758F50196A11DF9
:1009A000B11D2093610180936C0190936D01A09320
:1009B0006E01B0936F018091620190916301A091EB
:1009C0006401B09165010196A11DB11D8093620182
:1009D00090936301A0936401B0936501BF91AF91BF
:1009E0009F918F913F912F910F900FBE0F901F906D
:1009F000189526E8230F0296A11DB11DD2CF1F9294
:100A00000F920FB60F9211242F933F934F935F9342
:100A10006F937F938F939F93AF93BF93CF93DF9306
:100A2000EF93FF9380916001C0913102D0E087FF86
:100A300024C01092850010928400809160018F5F25
:100A40008093600180916001082E000C990B8C1737
:100A50009D0724F4809160018C30C4F18091840062
:100A600090918500049680349C4908F47AC0809166
:100A7000840090918500049676C080916001082ED4
:100A8000000C990B8C179D07C4F6E09160018E2F26
:100A9000EE0F990BFC01EE0FFF1FE80FF91FE35F4C
:100AA000FD4F808186FFC9CFE09160018E2FEE0F50
:100AB000990BFC01EE0FFF1FE80FF91FE35FFD4FDD
:100AC000808160E08F730E94A002B7CF20918400E4
:100AD00030918500E09160018E2FEE0F990BFC01A3
:100AE000EE0FFF1FE80FF91FE35FFD4F8181928139
:100AF000820F931F9093890080938800E09160019A
:100B00008E2FEE0F990BFC01EE0FFF1FE80FF91F60
:100B1000E35FFD4F808186FF11C0E09160018E2F61
:100B2000EE0F990BFC01EE0FFF1FE80FF91FE35FBB
:100B3000FD4F808161E08F730E94A002FF91EF91D1
:100B4000DF91CF91BF91AF919F918F917F916F91E5
:100B50005F914F913F912F910F900FBE0F901F907B
:100B6000189580E49CE990938900809388008FEF2A
:100B700080936001E3CFCF92DF92EF92FF920F93C9
:100B80001F93E82FF92F05C00150110921093109E0
:100B900061F1908196239417B9F305C001501109B2
:100BA0002109310911F1908196239413F7CFC12CBB
:100BB000D12CE12CF12C0AC08FEFC81AD80AE80A10
:100BC000F80A0C151D052E053F0579F08081862356
:100BD000841791F36C2D7D2D8E2D9F2D1F910F91DC
:100BE000FF90EF90DF90CF90089560E070E080E09C
:100BF00090E01F910F91FF90EF90DF90CF900895BC
:100C0000109273011092720188EE93E0A0E0B0E0C0
:100C10008093740190937501A0937601B09377014E
:100C20008EE091E0909371018093700185EC90E0EB
:100C300090937D0180937C0184EC90E090937F0100
:100C400080937E0180EC90E09093810180938001FD
:100C500081EC90E0909383018093820182EC90E09C
:100C6000909385018093840186EC90E090938701B6
:100C7000809386011092890110928A0110928B0153
:100C800010928C016CE571E087E492E00E944C04C4
:100C90006CE171E081E492E00E944C046CE171E04F
:100CA0008BE392E00E944C046CE171E085E392E0FA
:100CB0000E944C04809131028C3098F491E0980F9E
:100CC000909331028093320290E0FC01EE0FFF1FFF
:100CD000E80FF91FE35FFD4F88EB9BE09283818370
:100CE00008958FEF809332020895CF93DF93CDB7AD
:100CF000DEB729970FB6F894DEBF0FBECDBF78944C
:100D000084B5826084BD84B5816084BD85B5826010
:100D100085BD85B5816085BD80916E0081608093C1
:100D20006E0010928100809181008260809381002A
:100D3000809181008160809381008091800081603A
:100D4000809380008091B10084608093B100809195
:100D5000B00081608093B00080917A0084608093BD
:100D60007A0080917A00826080937A0080917A0084
:100D7000816080937A0080917A00806880937A0005
:100D80001092C100E0918001F091810182E08083A6
:100D9000E0917C01F0917D011082E0917E01F09163
:100DA0007F018FEC808310928801E0918401F091A3
:100DB000850186E08083E0918201F091830180814A
:100DC00080618083E0918201F0918301808188605D
:100DD0008083E0918201F09183018081806880832B
:100DE000E0918201F091830180818F7D808361E0B9
:100DF0008DE00E94CE0261E083E00E94CE028091ED
:100E000032028C3008F051C061E085E00E94CE02D1
:100E100080913202282F30E0F901EE0FFF1FE20F20
:100E2000F31FE35FFD4F9081907C9560908310925B
:100E30003302109234022CE0622F0E94930A829FA8
:100E4000B001112430E020E0AB01420F531FFA0142
:100E5000EE0FFF1FE40FF51FE35FFD4F908196FD3E
:100E600016C02F5F3F4F2C30310571F781110FC035
:100E70001092800082E08093810010928500109291
:100E80008400B19A80916F00826080936F00E0913E
:100E900032028E2F90E0FC01EE0FFF1FE80FF91FCA
:100EA000E35FFD4F80818064808361E084E00E9485
:100EB000CE0260E087E00E94CE0261E087E00E94FF
:100EC000A00260E088E00E94CE0261E088E00E941B
:100ED000A00260E0809100010E94CE0260E080915B
:100EE00008010E94CE0261E089E00E94CE0260E02B
:100EF0008AE00E94CE023AE3832E912CA12CB12CE1
:100F000044E6E42EF12C50E2652E712C409108014C
:100F1000498793E0292E312C23E2422E512C87E081
:100F20000E94770290936B0180936A0188E00E948F
:100F30007702909369018093680189850E94FF027E
:100F40009093670180936601809100010E94FF02E7
:100F5000909301018093000160E089E00E94A0026B
:100F6000C1010197F1F761E089E00E94A002C2018E
:100F70000197F1F760E089E00E94A002E4EAF0E066
:100F80006491E0E9F0E08491E82FF0E0EE0FFF1FBC
:100F9000E458FF4F8591949100E412E42FE030E093
:100FA000462F0E94BB05611571058105910529F049
:100FB0006F5F7F4F8F4F9F4F9F70A50194010E94DD
:100FC000F90921503109410951096FE171E02930D6
:100FD00031054105510510F06CE171E08BE392E0C1
:100FE0000E94420480916A0190916B01892B09F063
:100FF0004DC06FE171E085E392E00E94420461E040
:1010000084E00E94A00280916801909169016FE1E3
:1010100071E0892B11F06CE171E081E492E00E94B3
:10102000420480E791E00E949A01181619060CF01C
:10103000A2C01A8219821C821B821E821D8250E06D
:1010400040E06CE571E0CE0101960E9417040E9419
:101050004C0197FD23C08F8318860D811E810F5F81
:101060001F4FB801CE0101960E94EF03882379F348
:1010700029813A818D819E81BE01695F7F4F820FF8
:10108000931F0E94C10C1E830D83E1CF6CE171E0C0
:1010900085E392E00E94420460E0B2CF8091470273
:1010A00090914802009709F481C069817A816115A5
:1010B000710509F479C04091490250914A022D818D
:1010C0003E814217530708F46FC00E94C10C8D8106
:1010D0009E8190934C0280934B021E821D82CE0112
:1010E00001960E94E70380914702909148027A821C
:1010F0006982BE016F5F7F4F0E94C5098C01BE01EE
:101100006F5F7F4F90E080E00E94C5096C0163E251
:1011100071E0C8010E94B80C892B69F5C6010E94D4
:10112000A7092FEFAC01249FC001259F900D11242A
:10113000B7010E949F0A8B0161E083E00E94CE020A
:101140000115110509F049C060E083E00E94A0028A
:10115000C6010E94A7092FEFAC01249FC001259F63
:10116000900D1124B7010E949F0ACB010E94B90380
:101170008AE00E94290200914702109148026CE225
:1011800071E0C8010E94B80C61E0892B49F064E36A
:1011900071E0C8010E94B80C892B09F065C060E0BD
:1011A0008DE00E94A0026CC00E94690B89819A8127
:1011B00090934802809347028B819C8190934A02CE
:1011C000809349028D819E8190934C0280934B02C3
:1011D0001A8219821C821B8280CF0F3F110511F4E5
:1011E00061E0B3CFE1EBF0E08491833019F140F49A
:1011F0008130B1F08230C9F0003811058CF7A4CFEE
:10120000873011F1883041F18430B1F7809180004E
:1012100080628093800010938B0000938A0098CFA7
:1012200084B5806884BD07BD93CF84B5806284BDDA
:1012300008BD8ECF809180008068809380001093DD
:1012400089000093880084CF8091B00080688093EB
:10125000B0000093B3007CCF8091B0008062809397
:10126000B0000093B40074CF6DE371E0C8010E9438
:10127000B80C892B09F046C08AE590E00E948D00E9
:1012800068EE73E080E090E00E94390360E084E063
:101290000E94A00281E492E00E9420018CE70E945B
:1012A000290285E392E00E9420018CE70E94290236
:1012B0008BE392E00E9420018CE70E94290290E0DB
:1012C00080E00E94B9038CE70E94290280916601A8
:1012D000909167010E94B9038AE00E94290264EF9D
:1012E00071E080E090E00E94390380E090E0892B7B
:1012F00009F415CE0E94A601882309F40ACE0E94A3
:10130000000004CE66E471E0C8010E94B80C892B8D
:1013100019F490E080E0B2CF60E571E0C8010E946E
:10132000B80C892B09F0ACCF61E084E03ACF85E3BB
:1013300092E00E94E7038BE392E00E94E70381E4DE
:1013400092E00E94E70387E492E00C94E703FC013B
:1013500088279927E89421912032E9F3293010F069
:101360002E30C8F32B3241F02D3239F4689404C08A
:101370000E94F109820F911D219120532A30C0F360
:101380001EF4909581959F4F08954DE452E00E9480
:10139000CA090895FA01A191B081009719F4109734
:1013A000E1F0CD01DC01CD010D90002011F4C00170
:1013B00013C0FB012191222319F02015D9F7F3CF97
:1013C000FB012191201519F41E92119606C02223CB
:1013D000C1F70D900020A1F7D001FA01A193B083CD
:1013E00008957AE0979F902D879F802D910D11246D
:1013F0000895052E97FB1EF400940E94100A57FDD5
:1014000007D00E94620A07FC03D04EF40C94100A25
:1014100050954095309521953F4F4F4F5F4F089520
:1014200090958095709561957F4F8F4F9F4F089550
:101430000E94840AA59F900DB49F900DA49F800DDB
:10144000911D11240895B7FF0C94180A0E94180AE0
:10145000821B930B08952F923F924F925F926F924F
:101460007F928F929F92AF92BF92CF92DF92EF9234
:10147000FF920F931F93CF93DF93CDB7DEB7CA1BB5
:10148000DB0B0FB6F894DEBF0FBECDBF09942A88E0
:10149000398848885F846E847D848C849B84AA8488
:1014A000B984C884DF80EE80FD800C811B81AA8115
:1014B000B981CE0FD11D0FB6F894DEBF0FBECDBFE0
:1014C000ED010895A1E21A2EAA1BBB1BFD010DC060
:1014D000AA1FBB1FEE1FFF1FA217B307E407F507E4
:1014E00020F0A21BB30BE40BF50B661F771F881FC0
:1014F000991F1A9469F760957095809590959B0156
:10150000AC01BD01CF010895A29FB001B39FC001FE
:10151000A39F700D811D1124911DB29F700D811D1F
:101520001124911D0895991B79E004C0991F961705
:1015300008F0961B881F7A95C9F78095089597FB48
:10154000072E16F4009407D077FD09D00E94B30A45
:1015500007FC05D03EF4909581959F4F08957095B6
:1015600061957F4F0895AA1BBB1B51E107C0AA1FBD
:10157000BB1FA617B70710F0A61BB70B881F991F34
:101580005A95A9F780959095BC01CD010895EE0F6D
:10159000FF1F0590F491E02D09940F931F93CF93B3
:1015A000DF938230910510F482E090E0E0915102E7
:1015B000F091520230E020E0B0E0A0E0309799F4E2
:1015C0002115310509F44AC0281B390B2430310597
:1015D000D8F58A819B816115710589F1FB0193839F
:1015E0008283FE0111C0408151810281138148171D
:1015F0005907E0F04817590799F4109761F01296CF
:101600000C93129713961C933296CF01DF91CF91D2
:101610001F910F9108950093510210935202F4CF3D
:101620002115310551F04217530738F0A901DB01AC
:101630009A01BD01DF01F801C1CFEF01F9CF90930D
:10164000520280935102CDCFFE01E20FF31F81932E
:1016500091932250310939832883D7CF20914F02AB
:1016600030915002232B41F4209104013091050167
:101670003093500220934F022091020130910301D8
:101680002115310541F42DB73EB740910601509127
:101690000701241B350BE0914F02F0915002E21735
:1016A000F307A0F42E1B3F0B2817390778F0AC0185
:1016B0004E5F5F4F2417350748F04E0F5F1F509362
:1016C000500240934F02819391939FCFF0E0E0E06E
:1016D0009CCFCF93DF930097E9F0FC013297138200
:1016E0001282A0915102B0915202ED0130E020E04F
:1016F0001097A1F420813181820F931F20914F0216
:10170000309150022817390709F061C0F093500258
:10171000E0934F02DF91CF910895EA01CE17DF07E2
:10172000E8F54A815B819E0141155105B1F7E90158
:10173000FB83EA8349915991C40FD51FEC17FD072C
:1017400061F4808191810296840F951FE90199834C
:101750008883828193819B838A83F0E0E0E0129604
:101760008D919C9113970097B9F52D913C9111970C
:10177000CD010296820F931F20914F0230915002AB
:101780002817390739F6309751F510925202109206
:101790005102B0935002A0934F02BCCFD383C283B7
:1017A00040815181840F951FC817D90761F44E5F9E
:1017B0005F4F88819981480F591F518340838A81E7
:1017C0009B81938382832115310509F0B0CFF0937B
:1017D0005202E09351029ECFFD01DC01C0CF138283
:1017E0001282D7CFB0E0A0E0E8EFFBE00C942D0A26
:1017F0008C01009751F4CB010E94CD0A8C01C801E5
:10180000CDB7DEB7E0E10C94490AFC01E60FF71F03
:101810009C0122503109E217F30708F49DC0D90159
:10182000CD91DC911197C617D70798F0C530D10537
:1018300030F3CE0104978617970708F3C61BD70B22
:101840002297C193D1936D937C93CF010E94690B32
:10185000D6CF5B01AC1ABD0A4C018C0E9D1EA09127
:101860005102B0915202512C412CF12CE12C1097D5
:1018700031F580914F02909150028815990509F039
:101880005CC04616570608F058C08091020190913E
:101890000301009741F48DB79EB740910601509126
:1018A0000701841B950BE817F90708F055C0F09362
:1018B0005002E0934F02F90171836083A0CF8D91B4
:1018C0009C91119712966C90129713967C90139797
:1018D000A815B90559F56C0142E0C40ED11CCA1413
:1018E000DB0420F1AC014A195B09DA011296159765
:1018F00080F06282738251834083D9016D937C931F
:10190000E114F10471F0D7011396FC93EE93129752
:1019100076CF22968C0F9D1FF90191838083F3016E
:10192000EFCFF0935202E093510269CF4816590667
:1019300008F42C017D01D3019ACFCB010E94CD0A7E
:101940007C01009749F0AE01B8010E94AF0CC801BC
:101950000E94690B870153CF10E000E050CFFB01DC
:10196000DC0102C001900D9241505040D8F708951B
:10197000FB01DC018D91019080190110D9F3990BC5
:101980000895FB01DC0101900D920020E1F708951C
:1019900010E0C2E6D0E004C0FE010E94C70A219612
:1019A000C336D107C9F7F894FFCF5A01000053029C
:1019B00080005D0100000000DC01F30029012E021F
:1019C0009A0138018C014E6F007965730046616E93
:1019D0005370656564004C696768744F6E004C69AC
:1019E0006768744F666600446F6F724F70656E0073
:1019F000446F6F72436C6F736500456D6572676508
:0A1A00006E637900413000413100AF
:107E0000112484B714BE81FFF0D085E080938100F7
:107E100082E08093C00088E18093C10086E0809377
:107E2000C20080E18093C4008EE0C9D0259A86E02C
:107E300020E33CEF91E0309385002093840096BBD3
:107E4000B09BFECF1D9AA8958150A9F7CC24DD24C4
:107E500088248394B5E0AB2EA1E19A2EF3E0BF2EE7
:107E6000A2D0813461F49FD0082FAFD0023811F036
:107E7000013811F484E001C083E08DD089C08234E0
:107E800011F484E103C0853419F485E0A6D080C0E4
:107E9000853579F488D0E82EFF2485D0082F10E0AE
:107EA000102F00270E291F29000F111F8ED06801E7
:107EB0006FC0863521F484E090D080E0DECF843638
:107EC00009F040C070D06FD0082F6DD080E0C81688
:107ED00080E7D80618F4F601B7BEE895C0E0D1E017
:107EE00062D089930C17E1F7F0E0CF16F0E7DF06D8
:107EF00018F0F601B7BEE89568D007B600FCFDCFD4
:107F0000A601A0E0B1E02C9130E011968C91119780
:107F100090E0982F8827822B932B1296FA010C0160
:107F200087BEE89511244E5F5F4FF1E0A038BF0790
:107F300051F7F601A7BEE89507B600FCFDCF97BE46
:107F4000E89526C08437B1F42ED02DD0F82E2BD052
:107F50003CD0F601EF2C8F010F5F1F4F84911BD097
:107F6000EA94F801C1F70894C11CD11CFA94CF0C13
:107F7000D11C0EC0853739F428D08EE10CD085E9AC
:107F80000AD08FE07ACF813511F488E018D01DD067
:107F900080E101D065CF982F8091C00085FFFCCF94
:107FA0009093C60008958091C00087FFFCCF809118
:107FB000C00084FD01C0A8958091C6000895E0E648
:107FC000F0E098E1908380830895EDDF803219F02E
:107FD00088E0F5DFFFCF84E1DECF1F93182FE3DFCA
:107FE0001150E9F7F2DF1F91089580E0E8DFEE27F6
:047FF000FF270994CA
:027FFE00040479
:00000001FF
